:020000041000EA
:10000000002008205D0100101301001015010010F0
:100010001101001011010010110100101101001058
:100020001101001011010010110100101701001042
:100030001101001011010010190100101B01001026
:100040001D0100101D0100101D0100101D010010F8
:100050001D0100101D0100101D0100101D010010E8
:100060001D0100101D0100101D0100101D010010D8
:100070001D0100101D0100101D0100101D010010C8
:100080001D0100101D0100101D0100101D010010B8
:100090001D0100101D0100101D0100101D010010A8
:1000A0001D0100101D0100101D0100101D01001098
:1000B0001D0100101D0100101D0100101D01001088
:1000C0001D0100101D0100101D0100101D01001078
:1000D0001D0100101D0100101D0100101D01001068
:1000E0001D0100101D0100101D0100101D01001058
:1000F0001D0100101D0100101D0100101D01001048
:100100001D0100101D0100101D0100101D01001037
:1001100000BE00BE00BE00BE00BE00BEEFF3058004
:10012000103800BEF2EB8871DC320010FC32001097
:10013000A801001090A31AE7D3DEFFFF42012110AF
:10014000FF0100008C3A0000793512AB4FF000003F
:100150002049086006C881F3088810474FF05040D6
:10016000006810B14FF00000F2E70FA40ECC002998
:1001700002D000F015F8F9E71749184A002000E00E
:1001800001C19142FCD1002080F30A8814498847BC
:10019000144988471449884700BEFDE701C901C2D8
:1001A0009A42FBD3704700BFFC32001010010020C0
:1001B000D8090020C43B00100000082000000820DF
:1001C000C43B0010001008200010082000000000B0
:1001D0007047000008ED00E0D8090020901D0020C5
:1001E0005D2000103505001055200010F8B500BF47
:1001F000064B0749C91A891048BF0131491003D07D
:10020000044B0BB101481847704700BFD8090020C4
:10021000D80900200000000008B5054B1BB10549B6
:100220000548AFF30080BDE80840FFF7E1BF00BF1D
:1002300000000000441D0020243100104FF48072A3
:100240002DE9F84F524C0F202368524903F505530E
:100250001A6300F04DFF01210F2000F023FF4FF43F
:1002600000722368102003F505534A49DA6300F051
:100270003FFF0121102000F015FFDFF83891DFF873
:100280003881454EDFF834B1444B1B78002BFBD04E
:100290004FF00003414A13704FF00102404B1A70B7
:1002A00099F80030002B6ED03E4B1B68D8F8002028
:1002B00003F00103C3F115039A42F1D93A4B4FF011
:1002C000000A1B78002B5AD040F21F139A45DBD04E
:1002D000364B18682E4B00F110021968012303FAFF
:1002E00002F24B681342FCD1012540F28F1305FA4C
:1002F00000F46FEA040C442201EB800ECEF81030BB
:100300000B680830234305FA00F00B604B6803428A
:10031000FCD1013ADEF82030F8D1254C4B68184268
:10032000FCD1DEF82050C5F303224FEAD20343EAA2
:100330004207C5F303124FEA920343EA820262F3D3
:100340004A17C5F303024FEAD20343EA420262F3BB
:10035000CF2724F8027FA642E0D10B680CEA030302
:100360000B604FF001038BF800309BF80030002B3E
:10037000FBD00D4B0AF1010A1B78002BA4D1BAF176
:10038000EE0F81D8A4E7D8F80030142B88D995E770
:100390004C04002011010020F61200208B1D0020CB
:1003A0008C1D0020380D0020881D0020801D00209D
:1003B0003E0D0020891D0020401D00208A1D0020C8
:1003C0002DE9F0472C4E88B005460121306801F038
:1003D00089FF00274FF440234FF48032CDE90237E4
:1003E0004FF4F8334FF40819CDE900233368DFF8F0
:1003F0008C8003F12F4303F560031B0D0DF1100EEC
:1004000003F1060C4FEAC51A05F10E03C8F8000007
:100410004AEA033A9DE80F008EE80F00CDF814A0D9
:100420009EE80F008DE80F0017205FFA8CF1CDF8E1
:10043000009000F0D3FC172347EC4430019A6B4640
:1004400022F0F85242F0B851019103992A4621F462
:10045000782141F4382103913068D8F8001002F077
:100460001DF801233268D8F80000116883400B435F
:10047000136008B0BDE8F0874C040020841D002004
:100480002DE9F04F294D8BB081460121286801F0FC
:1004900029FF4FF440234FF4803204934FF4F83394
:1004A0004FF0000A8646CDE90223214ECDF800A088
:1004B0000DF1180CCDF814A002AC306094E80F00D8
:1004C0008CE80F0009F109073F0347EAC91BCDF883
:1004D0001CB09CE80F0084E80F00714652462023B0
:1004E000286801F095FF03994FEAC9186FF3D011FE
:1004F00041EA0801394303910499234621F0FA7136
:1005000021F4803141F4A8114A46049128683168E9
:1005100001F0C4FF0122296830680B68824023EA99
:1005200002030B600BB0BDE8F08F00BF4C0400204D
:10053000801D0020744B2DE9F04FDB68734A83F473
:10054000407383F00303C3F30A0387B04FF47A7058
:10055000D360002101F072F96D4805AB04AA03A92C
:1005600001F0CAFA18B96A496A4800F0BBFC0024D5
:10057000DDE90412039801F0FDF92546204600F05C
:100580008DFC45EC4440002220461146013400F029
:1005900043FC302CF2D100242546204600F07EFC9E
:1005A00045EC444001212046013400F049FC0C2C6C
:1005B000F3D1172000F072FC172045EC4400012114
:1005C00000F03EFC162000F069FC162045EC4400CB
:1005D000514C012100F034FC5049206801F09EFE8E
:1005E0004F490646206801F099FE05463046FFF760
:1005F000E7FE2846FFF744FF01234A4A11682268B4
:1006000001F11000834054681C40FCD140F28F136C
:10061000043142F82130444801F0CCFC4FF48852B8
:100620000146424BDFF824914148C9F800101A6096
:1006300001F0D4FF00F0F8FA204600F0DDFA3D4D5D
:100640003D4EDFF80C813D4F2B78002BFCD02C70F9
:100650004FF0000A02F028FD3378002BFCD04FF455
:10066000B4623749374802F037FD347098F80030EB
:1006700073B33B7853B34FF4B46B334B1A780BFB23
:100680000AF392B35A4622202E49019302F014FD38
:10069000019BD9F80010222019445A4602F00CFDA3
:1006A000019BD9F800004FF4B4622649184402F0C7
:1006B000F7FC3B780AF1010A002B40F21F1308BF38
:1006C000EF235345C8D802F003FDBDE71E4B1B784E
:1006D0004FF4B46222201B4902F0EEFC4FF4B462E6
:1006E0002220184902F0E8FCE3E7D9F800105A4646
:1006F00019442220019302F0DFFC5A4622201149BE
:1007000002F0DAFC019BCCE700000D4000100D4028
:1007100020300500243100104C0400202432001049
:100720004C320010801D002000540600008006405E
:100730003D0200108C1D00208A1D0020881D002015
:10074000400D00204015002048040020300D0020FE
:10075000891D002008B505210D2000F03FFB052173
:100760000C2000F03BFB0F224FF0010343EC402034
:100770000E2243EC40200D2243EC40200C2243EC9F
:100780004020824A13689B05FCD500BF00BF00BF14
:1007900000BF00BF00BF00BF00BF00BF00BF00BF61
:1007A00000BF00BF00BF00BF00BF00BF00BF00BF51
:1007B00000BF00BF00BF00BF00BF00BF00BF00BF41
:1007C00000BF00BF00BF00BF00BF00BF00BF00BF31
:1007D00000BF00BF00BF00BF00BF00BF00BF00BF21
:1007E00000BF00BF00BF00BF00BF00BF00BF00BF11
:1007F00000BF00BF00BF00BF00BF00BF00BF00BF01
:1008000000BF00BF00BF00BF00BF00BF00BF00BFF0
:1008100000BF00BF00BF00BF00BF00BF00BF00BFE0
:1008200000BF00BF00BF00BF00BF00BF00BF00BFD0
:1008300000BF00BF00BF00BF00BF00BF00BF00BFC0
:1008400000BF00BF00BF00BF00BF00BF00BF00BFB0
:1008500000BF00BF00BF00BF00BF00BF00BF00BFA0
:1008600000BF00BF00BF00BF00BF00BF00BF00BF90
:1008700000BF00BF00BF00BF00BF00BF00BF00BF80
:1008800000BF00BF00BF00BF00BF00BF00BF00BF70
:1008900000BF00BF00BF00BF00BF00BF00BF00BF60
:1008A00000BF00BF00BF00BF00BF00BF00BF00BF50
:1008B00000BF00BF00BF00BF00BF00BF00BF00BF40
:1008C00000BF00BF00BF00BF00BF00BF00BF00BF30
:1008D00000BF00BF00BF00BF00BF00BF00BF00BF20
:1008E00000BF00BF00BF00BF00BF00BF00BF00BF10
:1008F00000BF00BF00BF00BF00BF00BF00BF00BF00
:1009000000BF00BF00BF00BF00BF00BF00BF00BFEF
:1009100000BF00BF00BF00BF00BF00BF00BF00BFDF
:1009200000BF00BF00BF00BF00BF00BF00BF00BFCF
:1009300000BF00BF00BF00BF00BF00BF00BF00BFBF
:1009400000BF00BF00BF00BF00BF00BF00BF00BFAF
:1009500000BF00BF00BF00BF00BF0521112000F095
:100960003DFA0521102000F039FA05210D2000F094
:1009700035FA05210C2000F031FA10EE1030DB437F
:1009800003F47F2320EE103008BD00BF000060504C
:10099000F0B5A1B06E4680220021684602F012F93F
:1009A000004A01E00000605013689B05FCD500BFC1
:1009B00000BF00BF00BF00BF00BF00BF00BF00BF3F
:1009C00000BF00BF00BF00BF00BF00BF00BF00BF2F
:1009D00000BF00BF00BF00BF00BF00BF00BF00BF1F
:1009E00000BF00BF00BF00BF00BF00BF00BF00BF0F
:1009F00000BF00BF00BF00BF00BF00BF00BF00BFFF
:100A000000BF00BF00BF00BF00BF00BF00BF00BFEE
:100A100000BF00BF00BF00BF00BF00BF00BF00BFDE
:100A200000BF00BF00BF00BF00BF00BF00BF00BFCE
:100A300000BF00BF00BF00BF00BF00BF00BF00BFBE
:100A400000BF00BF00BF00BF00BF00BF00BF00BFAE
:100A500000BF00BF00BF00BF00BF00BF00BF00BF9E
:100A600000BF00BF00BF00BF00BF00BF00BF00BF8E
:100A700000BF00BF00BF00BF00BF00BF00BF00BF7E
:100A800000BF00BF00BF00BF00BF00BF00BF00BF6E
:100A900000BF00BF00BF00BF00BF00BF00BF00BF5E
:100AA00000BF00BF00BF00BF00BF00BF00BF00BF4E
:100AB00000BF00BF00BF00BF00BF00BF00BF00BF3E
:100AC00000BF00BF00BF00BF00BF00BF00BF00BF2E
:100AD00000BF00BF00BF00BF00BF00BF00BF00BF1E
:100AE00000BF00BF00BF00BF00BF00BF00BF00BF0E
:100AF00000BF00BF00BF00BF00BF00BF00BF00BFFE
:100B000000BF00BF00BF00BF00BF00BF00BF00BFED
:100B100000BF00BF00BF00BF00BF00BF00BF00BFDD
:100B200000BF00BF00BF00BF00BF00BF00BF00BFCD
:100B300000BF00BF00BF00BF00BF00BF00BF00BFBD
:100B400000BF00BF00BF00BF00BF00BF00BF00BFAD
:100B500000BF00BF00BF00BF00BF00BF00BF00BF9D
:100B600000BF00BF00BF00BF00BF00BF00BF00BF8D
:100B700000BF00BF00BF00BF00BF00BF00BF132306
:100B80004FF0000444EC4030112044EC40000525B7
:100B90002B46013BFDD1122344EC4030102744EC9E
:100BA00040700A23013BFDD1002100F017F900211C
:100BB000384600F013F91423013BFDD14FF0A04259
:100BC000202116600F23D16144EC40300D2044EC0D
:100BD0004000013DFDD10E2244EC40200C2544ECA8
:100BE0004050013BFDD1002100F0F8F800212846DB
:100BF00000F0F4F821B0F0BD70B44FF0A0434FF412
:100C0000B4654FF48851054E054C064A18605E6085
:100C10009D601C61116070BC704700BF0400605093
:100C200013006800008006402DE9F047FFF792FDB1
:100C30000820634A634D10606A6D634C82F02002A5
:100C400002F0E0026265AA6D604982F4803202F42B
:100C500040325F4BA26508609A68D24312F00804E4
:100C6000FAD1132000F01AF9122000F017F92246E9
:100C70002146132000F0D0F822462146122000F031
:100C8000CBF84FF0130A4FF0010545EC44A04FF0AC
:100C9000120945EC449045EC40A045EC40900F20F3
:100CA00000F0FCF80E2000F0F9F8224621460F2053
:100CB00000F0B2F8224621460E2000F0ADF80F22D7
:100CC00045EC44200E2345EC443045EC402045ECF7
:100CD00040300D2000F0E2F80C2000F0DFF8224652
:100CE00021460D2000F098F8224621460C2000F005
:100CF00093F80D2745EC44700C2645EC446045EC18
:100D0000407045EC4060112000F0C8F8102000F061
:100D1000C5F822462146112000F07EF822462146E1
:100D2000102000F079F84FF0110845EC44801024B1
:100D300045EC444045EC408045EC40404FF40030E9
:100D40004FF440314FF48072224B986159619A60A0
:100D500002F580325A60204A40461A60012100F0B4
:100D60007FF82046012100F07BF83846012100F091
:100D700077F83046012100F073F85046032100F067
:100D80007DF84846032100F079F85046032100F031
:100D900075F84846032100F071F84046032100F041
:100DA0006DF82046032100F069F83846032100F071
:100DB00065F83046BDE8F047032100F05FB800BF9A
:100DC00000200240000001400010014000300240BD
:100DD0000000024000000C400102041110B44FF466
:100DE00080740C4B53F8202003EB8003C00082F08A
:100DF000400200F1804003F5805C02F0C00200F583
:100E0000203003F54053CCF8002041601C605DF8B1
:100E1000044B70470480034010B4084CC90041EAF9
:100E2000820154F8202004EB8003514003F58053E5
:100E300001F00C015DF8044B196070470480034019
:100E4000064B022203EB800319B103F500531A602D
:100E5000704703F540531A60704700BF0480034099
:100E6000054B53F8202003EB8003514001F00101B2
:100E700003F580531960704704800340064B53F814
:100E8000202003EB800382EA011202F0300203F516
:100E900080531A60704700BF0480034030B44FF0A5
:100EA000000343EC440043EC400005254FF48074FC
:100EB0000B4BC20053F8201003EB800081F040017F
:100EC00002F1804303F5203301F0C00200F58051A8
:100ED00000F540500A605D60046030BC704700BFA0
:100EE000048003400FB400B583B0049C074801F0B0
:100EF000DBF93CB105A92046019101F07BF80448DB
:100F000001F0D2F9012001F08DF800BF603100102E
:100F100070310010EFF3108072B6064BD3E8CF1F8C
:100F200001220029FAD1C3E8412F0029F6D1BFF3ED
:100F30005F8F7047D30C00200023034AC2E88F3F25
:100F400080F31088704700BFD30C002070B5864630
:100F5000EFF3108572B6124CD4E8CF6F0120002E4B
:100F6000FAD1C4E8460F002EF6D1BFF35F8F4FF0E1
:100F7000010CC80801F007030CFA03F31EF800C0C7
:100F80001CEA030608D14CEA030C0EF800C0C4E8C2
:100F90008F6F85F3108870BD1046FFF7A3FF00BF69
:100FA000D30C0020F8B5EFF3108772B61C4ED6E8CC
:100FB000CF5F0124002DFAD1C6E8454F002DF6D1B0
:100FC000BFF35F8F9A421BD8012502E001329342A2
:100FD00022D3D40810F804E002F0070C05FA0CFC48
:100FE0001EEA0C0FF2D14EEA0C0E00F804E0104697
:100FF0000023C6E88F3F87F31088984207DBF8BDCF
:101000000023C6E88F3F87F310884FF0FF30002998
:10101000F5D00698FFF766FF4FF0FF30E8E700BF16
:10102000D30C0020044A1078431CDBB2182B28BFD5
:1010300010231370704700BF500400204FF0E022CF
:10104000936843F000539360704700BF0021044B46
:1010500003F12002C3E88F1F01339342FAD1704796
:10106000C80C00204FF0E0234FF08032C3F800247A
:10107000C3F80424C3F80824C3F80C24C3F81024CC
:10108000C3F81424C3F81824C3F81C24C3F820247C
:10109000C3F82424C3F82824C3F82C24C3F830242C
:1010A000704700BF012300F01F029340400941B187
:1010B000800000F1604000F56140C0F880310360BD
:1010C0007047024A203042F82030704700E100E0CB
:1010D0000123064A410952F8212000F01F0003FABB
:1010E00000F01040003818BF0120704700E100E018
:1010F000F8B50D46EFF3108772B6124ED6E8CF2F33
:101100000123002AFAD1C6E8423F002AF6D1BFF3F4
:101110005F8F0D4B00F110049B680C4A53F824308C
:10112000934203D0994201D000F044FE064B9B68E5
:1011300043F82450BFF35F8F0023C6E88F3F87F347
:101140001088F8BDD10C002000ED00E01D0100105A
:10115000014B0B4403607047C80C002070B5104C65
:10116000104DAC420ED2FF26236863B1FFF75AFF41
:1011700001462046FFF7ECFFA680BFF35F8F0834DF
:10118000AC42F1D370BDFFF74DFF01462046FFF79B
:10119000DFFF2671BFF35F8F0834AC42E4D370BD2C
:1011A000C8090020D80900200D4B1A68EFF3108100
:1011B00072B6D2E8CFCF0120BCF1000FF9D1C2E85E
:1011C0004C0FBCF1000FF4D1BFF35F8F00221B68FE
:1011D000C3E88F2F81F3108840BF002000217047A3
:1011E0007C1D0020000000002DE9F04F2DED028B4A
:1011F00085B0EFF30583DBB2103B9A0818BF0122DC
:101200004FF0010103F0030B18BFAF4DAF4B08BF08
:10121000AF4D0BEB820253F8226001FA0BF205F599
:1012200041539FEDA78B01925A602FE0B3881C04B5
:1012300040F19380B379002B40F0DD80B6F90820AF
:10124000002AC0F21E81736902EB420203EBC20363
:10125000D3E90247B7F1FF3F08BFB4F1FF3F0ED01B
:1012600005EB8B01AB6A0A69D21AE31A934205D3E4
:1012700001232A6A03FA0BF3134200D10C612846BA
:1012800000F0CAFAA042B941C0F2FB80B6F90830BA
:10129000019A002B0093EA63C8DBD6F8148003EBB5
:1012A0004309284608EBC907D7E9024A00F0B4FA17
:1012B000A04271EB0A01B9DBBAF1000FC0F2C380A2
:1012C000D7E90431834A934200F0ED807A88B6F979
:1012D000080092B242EA0040984702460B4652EAA2
:1012E000030100F0B080002B80F2D180B4EB020E3D
:1012F0006AEB030A38F93930C7E902EA002B95DBBB
:10130000716903EB430201EBC202D2E90270BE45F0
:101310007AEB000C4FEA430288DBB4462CF8083F16
:1013200006E003EB430001EBC0005A00D0E9027075
:10133000BE451A447AEB000001EBC20404DB31F92C
:101340003230A446002BECDA28F83930009BACF898
:101350000030B3881C043FF56DAF3369EFF31082A2
:1013600072B6D3E8CF0F01210028FAD1C3E8401F9D
:101370000028F6D1BFF35F8F4FF6FF74B0880023CB
:10138000316900B2B480C1E88F3F82F3108898427F
:10139000FFF650AF0746A946746906F1080807EB47
:1013A000470E04EBCE03D3E90250B6F90830C44629
:1013B000002B13DBB246009704E034F93630944634
:1013C000002B09DB03EB430604EBC602D2E90271F2
:1013D000BD4270EB0101F0DA5646009FACF8007098
:1013E00034F93E7024F83E30002FD8DAB3794D46F8
:1013F000002B3FF423AF0023B371B6F9083006F198
:101400000808581C3DD01A46776903E08046591CED
:101410003FF416AF03EB430107EBC100B0F802C085
:101420001C461CF4004F9E4637F93130EED09442F2
:1014300080ED028B05D0A8F80030328927F83120E2
:1014400034817246E3E738F8393033813369EFF39A
:10145000108272B6D3E8CF0F01210028FAD1C3E879
:10146000401F0028F6D1BFF35F8F7388316928F8D9
:101470003930009B73800023C1E88F3F82F31088CE
:10148000D4E640BF05B0BDEC028BBDE8F08F284626
:10149000CDE9022300F0C0F9029A039B10EB020E83
:1014A00043EB010A26E708460B690291984700289A
:1014B000C9D00299D1E9002311E700BFAFF3008042
:1014C000FFFFFFFFFFFFFFFF00800B405C1D0020C0
:1014D00000000B40E91100102DE9F84F364C25694A
:1014E0002DB1BDE8F84F0A213448FFF731BEDFF8CF
:1014F000E4800321404600F07DF90326C4F80C8007
:10150000FFF790FD4FF0504C2D4B267003442361A4
:10151000DCF800300F216370636961801D834FF038
:101520000405A3F878504FF00505A3F890504FF04C
:101530000605A3F8A8504FF007050E214FF6FF72DD
:1015400008274FF00A0EA3F8C0504FF001094FF0E2
:101550000C0C4FF0020B4FF0090A0D204FF00B0559
:10156000A3F868111749A280A3F808E1A160A3F8C5
:1015700048B0A3F8F0A0A3F82051A3F838C1A3F80D
:101580005001A3F83090A3F86060A3F8D8701A80D7
:101590000D4B3046C8F820700C49DC60FFF7A8FD01
:1015A00049463046FFF77EFD094B0A211F64034878
:1015B000BDE8F84FFFF7CCBD540400207C1D00208F
:1015C000C80C0020FFFF10005C1D0020E911001076
:1015D00000200B4000000B400146F0B50069EFF31E
:1015E000108772B6D0E8CF5F0124002DFAD1C0E891
:1015F000454F002DF6D1BFF35F8FB1F902E04C6982
:101600000EEB4E0CBEF1000F4FEACC05086904EB5F
:10161000CC0C3CDB665B4E800026C0E88F6F87F306
:101620001088BCF80200CCE902230130C0F30E00A0
:10163000012838BF0120059BACF80200CCF810301F
:10164000069B40EA0E40CCF814300B69EFF3108291
:1016500072B6D3E8CFCF0127BCF1000FF9D1C3E8B0
:101660004C7FBCF1000FF4D1BFF35F8F8B886353C5
:10167000A1F804E00B69C3E88F6F82F310880122A0
:10168000CB68097803F501538A405A60F0BD002306
:10169000C0E88F3F87F310884FF0FF30F0BD00BFE8
:1016A00003464089B0EB214F37DD58690A1402EB3D
:1016B000420210B500EBC2001C69EFF3108C72B649
:1016C000D4E8CFEF0122BEF1000FF9D1C4E84E2FCC
:1016D000BEF1000FF4D1BFF35F8F428889B292B29E
:1016E0008A4207D000221B69C3E88F2F8CF3108831
:1016F000002010BD42F400424280012100221869FE
:101700009971C0E88F2F8CF310881C78DA6808462E
:1017100002F50153A140596010BD0020704700BF81
:101720002DE9F04306460D4683B0EFF30584E4B29D
:101730003CB12D4B5A6AAA421CD2002003B0BDE82E
:10174000F0832A4FD7F80C9097F80080484600F0B5
:1017500063F808F1040859F828301B1A301A65EBB1
:101760000101984271F1000110DB20BF1E4B5A6A43
:10177000AA42E2D314BF012400249B6AB34234BFBF
:10178000204644F0010003B0BDE8F08300F04CF8BF
:10179000864265EB0101002914DB154B3846CDE983
:1017A000003432462B46FFF717FF011E0ADD0E4BB1
:1017B0005A6AAA4216D39B6AB34211D30B48FFF769
:1017C0006FFFB6E7084B5C6AAC42B6D3641B18BF28
:1017D00001249B6AB34234BF204644F00100ADE7C8
:1017E000AA42EBD120BFE9E700000B4054040020DF
:1017F000A911001010B4054B054C064AA04214BFB5
:101800001846581C5DF8044BFFF7A0BBF40C0020F1
:1018100000800B40743100100346416A0A46986A02
:10182000596A8A42FAD17047034B596A0A46986A44
:10183000596A9142FAD1704700000B4030B4154A02
:10184000536A9C46946A536A6345FAD10219594116
:101850004FF0000528BF01250E4B5B6AB5B15A1C3D
:1018600008BF1A4608D04FF0FF310A460948436ABC
:101870008B42FCD38B4207D1064902E0486A98426A
:1018800002D1886A9042F9D330BC70479942EDD8B2
:10189000F0E700BF00000B4000EB400C4FEA8C0C5F
:1018A0000CF1804C0CF5803CF0B51646DCF80420B9
:1018B000051FB2F5803F38BF4FF48032EDB238BF1C
:1018C000CCF80420012D2AD94FF40067254C0CF5E3
:1018D0004052176054F82020B2B9DCF80020012DE6
:1018E00082EA461202F0E0020CF5805632602AD9F4
:1018F0004FF4006144F820304FF480330CF500526F
:101900001160CCF80430F0BD6769B7FBF2FE0EF150
:10191000010E0EEB4E0EBEF1030EFCD2DDE70129E7
:10192000D2D103240CF540521460DCF80820D20711
:10193000FBD5DCF800200B4C82EA461202F0E002F4
:101940000CF5805632600122DCF800504D4005F065
:101950000305356002FA01F1DCF808200A42FBD0E9
:10196000C6E700BFFC0C0020014B53F82000704775
:10197000FC0C0020584B2DE9F0431C6C1746B4F5C5
:10198000803F38BF4FF4803283B038BF1A640322DF
:1019900080460E46514B504DDA636C6CE307FCD524
:1019A000EB6B4F4A83F0200303F0E003D363EB6B50
:1019B000494D83F0010303F00303D3636C6CA40768
:1019C000FCD54FF400624FF48039464B464CDA6345
:1019D000464B4246636101213346C5F84090444876
:1019E000009700F057F94FF400616B6B07FB06F6A8
:1019F0004B4538BFC5F83490384B2269B8FBF6F632
:101A000019633AB16369B3FBF2F3013303EB4303A8
:101A1000033BFDD23049324A0B6B03F0E003136302
:101A20000B6B83F0020303F0030313638B6B580704
:101A3000FCD54FF400654FF480332A4A15632D4AD4
:101A40004B6322610A6C9A424FF0030238BF0B6469
:101A5000224B2149DA634B6CDA07FCD5CB6B204A69
:101A600003F0E003D363CB6B1B4983F0010303F066
:101A70000303D3634B6C9B07FCD54FF480334FF4C7
:101A80000065184A6661D5630B64CA6C9A4238BF18
:101A9000CB644FF40061114BA26999643AB1636958
:101AA000B3FBF2F3013303EB4303033BFDD24FF4EB
:101AB00000604FF48031084A094D936C83F0400375
:101AC00003F0E003AB64074B084DA5619864D16453
:101AD00003B0BDE8F08300BF0000014000300140CA
:101AE0000010014000200140FC0C0020006CDC02D2
:101AF00000000540001BB7002DE9F04F4FF4A0781F
:101B0000994685B0CDE902125F4CDFF884A15445B7
:101B10000AD908F1FF38A4F53B54B8F10F0FA4F12E
:101B20002004F4D1002069E0072304F53722019452
:101B300003FB03F402F5D872B2FBF4FE70454FF0DC
:101B4000010C4FF002074FF003064FF004054FF071
:101B500005013FD0B3F1010E00F094800EFB03F4B9
:101B6000B2FBF4FB58454CD019B301FB03F4B2FBB4
:101B7000F4FB58454FD0E5B105FB03F4B2FBF4FB91
:101B8000584553D0AEB106FB03F4B2FBF4FB584505
:101B900057D077B107FB03F4B2FBF4FB58455BD099
:101BA000BCF1000F05D00CFB03F4B2FBF4FB834542
:101BB0005DD0734603FB03F4B2FBF4FE704501F104
:101BC000FF3105F1FF3506F1FF3607F1FF370CF164
:101BD000FF3CBFD104FB1024002CBBD19E464A46DB
:101BE000DDF808B0DDF80C900120284901FB08F170
:101BF000CBF80010C9F80030C2F800E005B0BDE82D
:101C0000F08F04FB1024002CAED14A46DDF808B05A
:101C1000DDF80C90E8E704FB1024002CABD14A4619
:101C20008E46DDF808B0DDF80C90DDE704FB1024EB
:101C3000002CA7D14A46AE46DDF808B0DDF80C907E
:101C4000D2E704FB1024002CA3D14A46B646DDF8A7
:101C500008B0DDF80C90C7E704FB1024002C9FD1DE
:101C60004A46BE46DDF808B0DDF80C90BCE704FB40
:101C70001024002C9DD14A46E646DDF808B0DDF878
:101C80000C90B1E7019C44E750262F00001BB700E1
:101C900050F80C0070B4039D04682D0345EA034519
:101CA0001B4B002CB3FBF1F3B2FBF3F61FDB194A1D
:101CB000194B904214BF4FF480424FF40042174C2E
:101CC0001A6003F580531A60A36832EA0303FBD15C
:101CD000212200F540530433016086601A600268D7
:101CE000002AFCDA0822C5601A6070BC70470368DD
:101CF00003F03F038B42DAD18368C3F30B03B34293
:101D0000D5D1C36803F4EE23AB42D0D1EDE700BFD9
:101D1000001BB70000800540002002400000024088
:101D2000012300EB4000800000F1804000F58410AA
:101D300041600360704700BF0023DB8A002242E855
:101D400000F2520201D4102118470421184700BFA5
:101D5000034AD2F82838002BFBD0BFF35F8F7047BF
:101D600000000E400021044B044ABFF35F8F43F88C
:101D7000041B9342F9D170470C080E402C080E400A
:101D800010B44FF48D704FF42A64064A064B07498D
:101D90001460D06019605368002BFCDA5DF8044BC6
:101DA000704700BF0080044000A0044000B0FA006B
:101DB000704700BF08B50148FFF794F8983100104C
:101DC00038B5054C054DAC4204D254F8043B984755
:101DD000AC42FAD338BD00BFE03000102031001013
:101DE00038B5054C054DAC4204D254F8043B984735
:101DF000AC42FAD338BD00BF0C31001020310010C6
:101E000010B40748074C084B084A094904601A6097
:101E10008B6832EA0303FBD15DF8044B704700BFC7
:101E2000002002407F3BEFEF00300240F6FFF3035B
:101E300000000240044BDB6CB3F5004F03D14FF4BC
:101E40008022024BDA6470470000115000201150CC
:101E50004FF0E022044BD2F8881D0B43C2F8883DB6
:101E600010EE3004704700BF030330006FF0604194
:101E7000044B054A19609368DB4333F06043FAD1A1
:101E8000704700BF003002400000024010B545F22C
:101E90005320FFF751FFBDE81040034604201847C8
:101EA00010B545F25320FFF747FFBDE81040034649
:101EB00001201847FFF7CAB810B5054B054C4FF481
:101EC00088721846A16800F0F5FEA06010BD00BF42
:101ED0000000002000ED00E0002370B52B4C82B024
:101EE000C4F88430FFF74CFF0122294BDA63636C9E
:101EF000012BFCD10321264A244B11639C6B012C3E
:101F0000FCD10226052521460523224A22480096B7
:101F1000FFF7C0FE21462B46204A21480095FFF7D7
:101F2000B9FE0022042031461E4BFFF7B5FC2146C6
:101F3000284600221C4BFFF7AFFC00220820114668
:101F40001A4BFFF7A9FC002209201146174BFFF797
:101F5000A3FC002206201146134BFFF79DFC002234
:101F6000114B07201146FFF797FC0420FFF7FCFCFC
:101F700000240F4BA3FB0035AD0CE0B22946013421
:101F8000FFF7CEFE062CF8D102B070BD0000014074
:101F900000300140002F685900000540008C864742
:101FA00000800540001BB70080D1F008006CDC0207
:101FB00083DE1B4338B50446094801F081F820460A
:101FC00000F030FB0546064801F072F82DB1054BD4
:101FD0002C449C4201D8284638BD0348FEF782FFB6
:101FE000C809002000000820A431001000B9704783
:101FF00000F018B910B5094B84B01C684CB1034609
:1020000000914FF0FF3203A90548A047012004B01A
:1020100010BD00F049F9204604B010BD3C0D002071
:10202000ED1F001000BEFDE7074A0346106838B1F7
:10203000064903448B428CBF4FF0FF30136070475A
:10204000034908461160F3E7340D00200000082022
:10205000901D002008B5FFF7E5FF00BF38B5064C1E
:10206000064DFFF7ADFEAC4204D254F8043B98474E
:10207000AC42FAD338BD00BF20310010243100102B
:1020800003680846114618472DE9F0411546427D80
:1020900007468846002A46D0002D1DDD0B780A2B06
:1020A00023D0012D4FF0000C18D04646012416F81D
:1020B000012F21460A2A04F1010422D0A542F6D1BB
:1020C00065450BDC08EB050313F8013CA3F10D0398
:1020D000B3FA83F35B093B75BDE8F0813B68A5EB80
:1020E0000C0108EB0C009847ECE7037D002BD8D1DE
:1020F000036802210F489847012DE3D04FF0010CEF
:10210000D3E716F8013C0D2BD8D08C4508EB0C001A
:10211000A1EB0C0101DA3B689847022105483B68B6
:102120009847A446CAE7294640463B68BDE8F041C7
:10213000184700BFD03200102DE9F04782B00D469D
:1021400091461C460646FFF76FFB4FF0FF3C6FF0D1
:1021500000472E4A821841F10003944577EB0301B2
:102160003CBF62463B462A4800F0AEFF6B1C8046EF
:1021700040D00CB3274F284B1C68B4B1B9F1000F05
:102180001CD1DFF89C9001E0246974B12368002B16
:10219000FAD0D9F800300BB19C42F5D120462A463E
:1021A0003146B8472469002CF0D1B8F1000F26D190
:1021B000284602B0BDE8F087184FDCE74FF00A0A66
:1021C000DFF85C9002E02469002CEED02368002B3D
:1021D000F9D0D9F800300BB1A342F4D12A463146E8
:1021E0002046B847012220460DF107018DF807A0CF
:1021F000B847E8E7304600F0D3FD0546B9E70448A4
:1022000000F056FF284602B0BDE8F08740420F00BC
:10221000D009002089200010240D0020812000100A
:102220002C0D0020F0B583B006468DF80700FFF7AF
:10223000FBFA4FF0FF356FF00044174A821841F166
:102240000003954274EB03013CBF23462A46134822
:1022500000F03AFF124B07461C689CB1114D01E09B
:1022600024697CB12368002BFAD02B680BB19C4207
:10227000F6D1204601220DF10701FFF705FF246981
:10228000002CEFD117B9304603B0F0BD034800F081
:102290000FFF304603B0F0BD40420F00D0090020D0
:1022A000240D00202C0D002038B5044600F078FDE8
:1022B000012305461A4620462946FFF73DFF084BF5
:1022C0001C682CB163682BB198472469002CF9D1A4
:1022D000284638BD2469002CF4D1284638BD00BFFB
:1022E000240D002010B5044604F12F4404F56004C9
:1022F000084B240D82B0A40000932246E31C06483C
:10230000FEF750FE8442CCBF4FF0FF30001B02B0FE
:1023100010BD00BF00320010F80C00202DE9F0477E
:102320000F460546FEF7F6FD012297F804A097F93F
:1023300005C005F12F4EDFF8D4800EF5600E02FACD
:102340000AF24FEA1E5EBCF1000F58F82E6002F14F
:10235000FF32CAF1200435DBA44503DC02FA0CF39A
:10236000334206D04FF0FF34FEF7E6FD2046BDE8CD
:10237000F087D5F86831F979002B41D14B0731D47A
:10238000644602FA0CF2164233D13968BAF1000FF2
:1023900010D0674601EB4A0A31F8023B07F11209F7
:1023A000B3F5005F38BF6344514507F1010745F8B5
:1023B0002930F1D1324348F82E20FEF7BDFD2046EA
:1023C000BDE8F087002C02DA13E0013C11D302FAD9
:1023D00004F33342A446F8D1D5F86811FB7991B9DA
:1023E0005B07CED56FF00A04FEF7A6FD2046BDE8D8
:1023F000F0876FF00804FEF79FFD2046BDE8F087E8
:10240000C907BDD5EEE7D907BBD5EBE7E80C00203F
:102410002DE9F041D0F868419DF81860121B1F2A81
:1024200038D84EF29F044EF280054FF4003801EB8D
:10243000410C002E18BF254600EBCC0404F5435494
:1024400000EBCC0C052BDCF8DC704FEA410EDCF81D
:10245000CC60C4F80C800CD95401053B44F0A05466
:102460000532052BCCF8DC4002F01F02CCF8D85026
:10247000F2D8714400EBC1010020520142EA8363AB
:10248000C1F8DC30C1F8D850C1F8DC70C1F8CC60BC
:10249000BDE8F0816FF00400FAE700BFF0B5012558
:1024A00004688D4024EA05040460B3B3D3E90156FF
:1024B0001F68DC6801EB410300EBC303C3F8C8707D
:1024C0004FEA410CC3F8D060C3F8CC50C3F8DC40ED
:1024D0000CEB01034FF0013500EBC30C4FF000464D
:1024E00000EBC30E01230EF5865E0C1D01F10807FB
:1024F0008D40CEF8106003FA04F4CEF8106002F0BC
:102500001F028560BB4000F5005004600EF1100E04
:1025100003600020CCF8D820F0BD4FF480374FF492
:1025200040264FF4F83501EB410400EBC404C4F835
:10253000C8704FEA410CC4F8D060C4F8CC50C4F85D
:10254000DC30C5E703BD00BF10B50446FFF748FC0B
:102550002346BDE810401847F0B5054687B019205E
:1025600017460E46FEF7B4FD002104461920FEF77B
:1025700099FD0021CDE9046503970026002701227B
:102580004FF050438C46CDE900670292A9B11A6D15
:102590009507FCD5596540BF1A6DD00703D420BFFD
:1025A0001A6DD207FBD59A6D8A420BD04FF0000C02
:1025B0000DEB8C021168E9E79A6D1A6DD607FBD412
:1025C00040BFE4E70CF1010CBCF1060FF0D121464D
:1025D000192007B0BDE8F040FEF764BD0C4B0D4A72
:1025E00093420ED39C4603F2F4710B4A9268CCF8E6
:1025F000F4070A48CCF8F837CCF8FC070848FFF78E
:10260000ABBF4FF0FF3340F2F3719C46EDE700BFE4
:10261000000808200000082000ED00E04925001017
:1026200045250010024B0146186800F003B800BFB2
:102630008008002001F10B03162B2DE9F04F07460F
:1026400083B023D8102900F2AF8000F0AFFA102534
:1026500018230220BA4E33445C68A3F10802944266
:1026600000F056816368384623F00303D4E9021270
:102670002344CA6091605A68083442F001025A60EB
:1026800000F09AFA204603B0BDE8F08F002B23F04B
:102690000705C0F28980A94200F2868000F086FA20
:1026A000B5F5FC7FC0F07B826B0A00F08480042BC0
:1026B00000F26281AB0903F1390003F1380EC30067
:1026C0009F4E3344A3F1080C5C68A44507D10DE08C
:1026D000002AE16880F216818C450C4606D06368BA
:1026E00023F003035A1B0F2AF2DD7046DFF86882DD
:1026F0003469444500F0F280636823F0030CACEBCE
:1027000005030F2B00F37481002BC6E9048880F2C7
:102710006381BCF5007FD6F804E080F0FF804FEACB
:10272000DC0301224FEA5C1C013302FA0CF256F87A
:1027300033104EEA020E06EBC302083AC6F804E074
:10274000C4E9021246F83340CC6083104FF0010C0C
:102750000CFA03FCF44534D81CEA0E0F07D120F024
:1027600003004FEA4C0C04301CEA0E0FF9D006EBC4
:10277000C00A8146D646DEF80C300BE05A681C468B
:10278000DB6822F00302511B0F2900F301810029AD
:1027900080F215819E45F1D109F101090EF1080E73
:1027A00019F0030FE7D158E10C233B6000242046C9
:1027B00003B0BDE8F08F4FF4007340204FF03F0EA0
:1027C0007EE7B468636823F00309A945A9EB050314
:1027D00002D30F2B00F385805A4B08201B6803F1AE
:1027E000100804EB0903009300F056FA564AA84477
:1027F00083461368013305D008F1FF384342804413
:1028000003EA08084146384600F02AFAB0F1FF3FD3
:1028100082464D4A00F0078104EB0903834200F22F
:1028200000814A4B0BF1FF3C18684044186000F0EF
:1028300064811168013100F06C8104EB0902AAEB9C
:10284000020202441A601AF00702CDE9002300F0E8
:102850002781C2F10802384692445A44D04408EA1B
:102860000C01521A02EA0C0B594600F0F9F9421C0D
:10287000019B00F06A81A0EB0A0000EB0B081868CE
:1028800048F00102B442C6F808A05844CAF804202F
:10289000186017D0B9F10F0F40F23E816168A9F1BD
:1028A0000C024FF0050C22F0070201F00101114368
:1028B0000F2A616004EB0201C1E901CC00F24D81F5
:1028C000DAF80420224B54461968814238BF186058
:1028D000204B1968814238BF1860A6E0D6F804E0A2
:1028E00033E7621945F0010543F00103083444F869
:1028F000045C3846B260536000F05EF9204603B0D5
:10290000BDE8F08FA26823443846D1608A60B2E601
:10291000DC68A3427FF4A6AE0230E7E6BCF5206F88
:102920004FEA5C2276D3142A00F2CD8002F15C03D8
:102930005B32DB00F118F3580839994211D1A5E058
:10294000780400208C0B00206C0400205C0B00201D
:10295000840B0020880B0020800400209B68994293
:1029600004D05A6822F003026245F7D8D968C4E956
:1029700002318C60DC60E8E6142B63D9542B00F242
:10298000AB802B0B03F16F0003F16E0EC30097E6D3
:10299000D4F808C03846671945F001056560CCF8E1
:1029A0000C30C3F808C041F00103C6E90477C7E959
:1029B00002887B60A150083400F0FEF8F7E622445C
:1029C0003846516841F00101516054F8082FD36036
:1029D0009A6000F0F1F8EAE6A44438460834DCF8DE
:1029E000043043F00103CCF8043000F0E5F8DEE6F3
:1029F000621943F0010145F0010538466560C6E9FA
:102A00000422C2E90288516044F80C30083400F016
:102A1000D3F8CCE64FEA9C1202F139033832DB00DE
:102A200088E7B44262D0B468626822F00308A8451F
:102A3000A8EB050302D30F2B3FF753AF384600F046
:102A4000BBF8B3E603F15C0003F15B0EC30037E6AD
:102A50005AF80839534540F0A08010F0030F00F1F8
:102A6000FF30F5D1736823EA0C0373604FEA4C0C16
:102A70000CF1FF329A4204D3A3E64FEA4C0C09F161
:102A800004091CEA030FF8D0484670E692104FF094
:102A9000010C0CFA02F24EEA020EC6F804E066E7F8
:102AA0000AEB0802384602EA0C02ABEB020B0BEA17
:102AB0000C0B594600F0D4F8431C019B7FF4DBAEAD
:102AC000DDF800B0DBE6542A2AD84FEA1C3202F1C6
:102AD0006F036E32DB002DE7B3F5AA7F2AD8EB0B2C
:102AE00003F1780003F1770EC300E9E52E4B0BF1FB
:102AF000FF3C1868404418609BE61AEA0C0F7FF40C
:102B000098AEC844D6F808A048F00102CAF80420DC
:102B1000D8E6C2F800A096E60123CAF804308DE793
:102B2000B2F5AA7F24D84FEADC3202F1780377327B
:102B3000DB00FFE640F25452934224D8AB0C03F181
:102B40007D0003F17C0EC300BAE5009A4FF0000B44
:102B5000083A9044A8EB0A0891E6384604F10801C7
:102B6000009300F0A7F9009BD6F808A01868A7E624
:102B700040F254539A420CD84FEA9C4202F17D0332
:102B80007C32DB00D6E64FF47E737F204FF07E0E62
:102B900096E54FF47E737E22CCE6736866E7E8081C
:102BA00005F1080356E500BF5C0B0020014800F06A
:102BB0006FB800BF580B0020014800F06BB800BF91
:102BC000580B0020830730B546D08418844604E0B3
:102BD00003F8011B9D0704D09C46A4456346F7D12A
:102BE00030BD013A0244A2EB0C02032A29D9CCB22F
:102BF0000F2A04EB042404EB04442FD9A2F1100C97
:102C000003F110052CF00F0CAC44C3E90044C3E9F8
:102C1000024410336345F8D112F00C0F02F00F0E8E
:102C200018D02EF0030CAEF104051A469C4442F86D
:102C3000044B6245FBD125F0030404330EF003027C
:102C40002344002ACCD0C9B21A4403F8011B934292
:102C5000FBD130BD7246F4E70346C6E79646E0E78F
:102C600038B50022064D044608462A60FFF7DCF915
:102C7000431C00D038BD2B68002BFBD0236038BD2F
:102C8000280D0020014B1868704700BF8008002005
:102C9000704700BF704700BF082802D14FF4805032
:102CA000704708B5FFF7EEFF162203464FF0FF30DE
:102CB0001A6008BD844641EA000313F0030349D1BA
:102CC000403A23D30B6803604B6843608B68836092
:102CD000CB68C3600B6903614B6943618B69836196
:102CE000CB69C3610B6A03624B6A43628B6A83627E
:102CF000CB6AC3620B6B03634B6B43638B6B836366
:102D0000CB6BC36340304031403ADBD230320BD31F
:102D10000B6803604B6843608B688360CB68C3605B
:102D200010301031103AF3D20C3205D351F8043B75
:102D300040F8043B043AF9D2043208D0D2071CBF51
:102D400011F8013B00F8013B01D30B88038060467A
:102D5000704700BF082A13D38B07B1D010F00303CC
:102D6000AED0C3F10403D21ADB071CBF11F8013B3C
:102D700000F8013BA4D331F8023B20F8023B9FE767
:102D8000043AD9D3013A11F8013B00F8013BF9D2DA
:102D90000B7803704B7843708B7883706046704774
:102DA00020F0030110F00300C0F1000051F8043BD3
:102DB00000F1040C4FEACC0C6FF000021CBF22FAA9
:102DC0000CF213434FF0010C4CEA0C2C4CEA0C4C67
:102DD000A3EB0C0222EA030212EACC1204BF51F860
:102DE000043B0430F4D0C2F1000102EA0102B2FA5D
:102DF00082F2C2F11F0200EBD20070472DE9F843C6
:102E00000646DFF8AC8008208946FFF745FF0546F7
:102E10003046FFF7CBFED8F808305F6827F003078D
:102E2000A7F11104A4EB09042C44B4FBF5F4013C14
:102E300005FB04F4A54208DC00213046FFF710FF33
:102E4000D8F808303B44984205D03046FFF7B4FE2E
:102E50000020BDE8F88361423046FFF701FF0130F2
:102E60000FD03F1B104AD8F80830304647F0010712
:102E70005F6013681B1B1360FFF79EFE0120BDE817
:102E8000F88300213046FFF7EBFED8F80820831ABC
:102E90000F2BDADD43F0010303495360034B1B683A
:102EA000C01A0860D1E700BF5C0B00206C04002052
:102EB0007804002000295AD0F8B50C460746FFF7E1
:102EC00075FE734D54F804CCA4F10802A8682CF0E8
:102ED00001030CF0010ED1184E68884226F003065B
:102EE0007CD088194E60406800F00100BEF1000FF0
:102EF0002ED154F8084C05F1080C121B2344946899
:102F0000644560D0D2F80CE0C4F80CE0CEF808407C
:102F100000287DD043F0010050600B60B3F5007FC6
:102F20002ED25809D9080123834068680131034330
:102F300055F831006B6005EBC103083BC2E90203A1
:102F400045F83120C2603846BDE8F840FFF734BE8E
:102F500070B9334405F1080C886843F001046045FA
:102F60006ED0C968C16088605460D350D6E770479E
:102F70004CF00101B3F5007F44F8041CD350D0D3CA
:102F8000B3F5206F4FEA532144D2990901F139007A
:102F900001F13804C100681869580838884203D123
:102FA00055E08968884204D04C6824F003049C42B0
:102FB000F7D8C868C2E9021082603846CA60BDE826
:102FC000F840FFF7F9BD80BB1E44D1E90213CB6086
:102FD000996046F0010353609651B4E71E44BEF178
:102FE000000F07D154F8083CD21A1E44D2E902134C
:102FF000CB60996046F001035360264BAA601B68C2
:10300000B342A0D8244B38461968FFF7F7FE9AE779
:103010003344A1E714290DD954291FD8190B01F104
:103020006F0001F16E04C100B5E743F0010050608C
:103030000B6088E701F15C0001F15B04C100AAE7C5
:10304000C5E90422C2E902CC5460D3507BE7A41046
:103050000123A3406C6823436B60ABE7B1F5AA7F03
:1030600006D8D90B01F1780001F17704C10092E78D
:1030700040F25450814206D8990C01F17D0001F1D3
:103080007C04C10087E74FF47E717E2483E700BF94
:1030900078040020700400208C0B0020F8B500BFDD
:1030A0005FF800F07D0200205FF800F09101002041
:1030B0005FF800F0F50300205FF800F0F501002054
:1030C0005FF800F0A10200205FF800F08D030020FF
:1030D0005FF800F0C10100205FF800F05902002005
:1030E0008D1E0010011E0010351E0010D91E00108C
:1030F0006D1E0010651D0010B51E0010511D001042
:103100005D110010B91E0010D9140010B11D00107F
:10311000A11E0010511E00103D100010651000107F
:043120001902001080
:1031240053797374656D20636C6F636B206F6620D5
:103134002575206B487A2063616E6E6F742062651A
:103144002065786163746C7920616368696576656C
:1031540064000000B822A0051E0000000A2A2A2AE2
:103164002050414E4943202A2A2A0A000A0000001E
:10317400486172647761726520616C61726D2025AB
:103184006420616C726561647920636C61696D654A
:103194006400000048617264206173736572740096
:1031A4004F7574206F66206D656D6F727900000035
:1031B40052656C6561736500626F6F74325F77325C
:1031C4003571303830000000302E3100322E312E6F
:1031D400310000007069636F320000004672616D57
:1031E400657468726F7765725F44656E69736500B4
:1031F4005365702031332032303235004E6F205009
:10320400494F207374617465206D616368696E65EC
:10321400732061726520617661696C61626C65001E
:103224002C3200100FFF0100A020202001C03FE03D
:10323400C00042A2440000C0A02052E03FE042A3EC
:103244004B008A0000000000543200100AFF010203
:10325400A08027A017259725142094250040142525
:1032640000404500B801000007000000060052506D
:10327400D3F07542B431001006005250E182887FC9
:10328400BC310010060052503ABCA911CC310010D8
:1032940006005250ABB36053D031001006005250B8
:1032A400BBFF3CB6D831001006005250861C030206
:1032B400E0310010060052505422A29DF431001057
:1032C40005005250DE65F468D83B00100D0A00007A
:0832D400E0F9FF7F010000009A
:1032DC00703200107C3200108832001094320010D2
:1032EC00A0320010AC320010B8320010C432001002
:1032FC00184BF0B41B681A6BD1071FD50120164F61
:10330C00164A17491863387008681768DFF85CC0EC
:10331C00C01B18BF01208CF8000008680024B0F511
:10332C00967F94BF002001200E4E0F4D3070106818
:10333C0000F0010028701068086014601A6B920786
:10334C0005D50221054A1963136801331360F0BCDB
:10335C00704700BF4C0400208B1D0020401D002036
:10336C00380D0020881D002048040020891D0020F5
:10337C00B822002300B583B000928DF8043000F021
:10338C004FF94FF0A0420523C2F800D0D361136966
:10339C005B01FCD400F040F903B05DF804FB00BF06
:1033AC0000B50B4B83B093E8030000908DF804102C
:1033BC0000F036F94FF0A0420523C2F800D0D361DB
:1033CC0013695B01FCD400F027F903B05DF804FB32
:1033DC00683200104FF47F4C30B50D46154985B05E
:1033EC0003C9144602908DF80C10ADF804C000F01F
:1033FC0017F94FF0A040052302AA0260C3610369CC
:10340C005901FCD44FF0A04C0560C461DCF81030BD
:10341C005A01FBD402234FF0A04201A9CCF80010B2
:10342C00CCF81C3013695B01FCD400F0F5F805B046
:10343C0030BD00BF583100104FF0A04310B4064C03
:10344C009208C3F88010C3F88400C3F88820C3F82E
:10345C008C405DF8044B70475B407E004FF0A043FE
:10346C0010B4064C9208C3F8C010C3F8C400C3F8DB
:10347C00C820C3F8CC405DF8044B70475B607E00FD
:10348C004FF0504310B5026893F90040EFF31083EE
:10349C0072B6D2E8CFCF0121BCF1000FF9D1C2E84E
:1034AC004C1FBCF1000FF4D1BFF35F8F90F90420D7
:1034BC00002A1CDB00210268C2E88F1F83F31088EE
:1034CC0020BF0268EFF3108372B6D2E8CFEF5FF043
:1034DC00010CBEF1000FF8D1C2E84ECFBEF1000FC7
:1034EC00F3D1BFF35F8F90F90420002AE3DA0022B6
:1034FC0001680471C1E88F2F83F3108810BD00BFE1
:10350C004FF050412DE9F0410027044616461D4668
:10351C00D1F8008008E0C1E88F7F8CF3108830462A
:10352C00294600F075F8E8B92168EFF3108C72B6F3
:10353C00D1E8CF2F0123002AFAD1C1E8423F002A5B
:10354C00F6D1BFF35F8F94F904302168002BE2DAD7
:10355C00002384F80480C1E88F3F8CF3108801208D
:10356C00BDE8F0810020BDE8F08100BF30B50468F3
:10357C00EFF3108C72B6D4E8CFEF0125BEF1000F3B
:10358C00F9D1C4E84E5FBEF1000FF4D1BFF35F8FE9
:10359C0090F904400568002C10DB0021C5E88F1F52
:1035AC008CF310884FF0504595F90050A54201D18D
:1035BC00084630BDBDE83040FFF7A2BF4FF0504287
:1035CC00126800230271C5E88F3F8CF3108801202C
:1035DC0030BD00BF0368EFF3108272B6D3E8CFCFD3
:1035EC000121BCF1000FF9D1C3E84C1FBCF1000F55
:1035FC00F4D1BFF35F8F4FF0FF0C0023016880F80C
:10360C0004C0C1E88F3F82F3108840BF704700BFF1
:10361C005FF800F0211700105FF800F0550700105C
:10362C005FF800F09109001001000000000020502C
:10363C00100000000000000000000000000000006E
:10364C000000000000000000D8090020FFFFFFFF71
:10365C00000002000000000000000000000000005C
:10366C0078040020780400208004002080040020CE
:10367C00880400208804002090040020900400207E
:10368C009804002098040020A0040020A00400202E
:10369C00A8040020A8040020B0040020B0040020DE
:1036AC00B8040020B8040020C0040020C00400208E
:1036BC00C8040020C8040020D0040020D00400203E
:1036CC00D8040020D8040020E0040020E0040020EE
:1036DC00E8040020E8040020F0040020F00400209E
:1036EC00F8040020F804002000050020000500204C
:1036FC0008050020080500201005002010050020FA
:10370C0018050020180500202005002020050020A9
:10371C002805002028050020300500203005002059
:10372C003805002038050020400500204005002009
:10373C0048050020480500205005002050050020B9
:10374C005805002058050020600500206005002069
:10375C006805002068050020700500207005002019
:10376C0078050020780500208005002080050020C9
:10377C008805002088050020900500209005002079
:10378C009805002098050020A0050020A005002029
:10379C00A8050020A8050020B0050020B0050020D9
:1037AC00B8050020B8050020C0050020C005002089
:1037BC00C8050020C8050020D0050020D005002039
:1037CC00D8050020D8050020E0050020E0050020E9
:1037DC00E8050020E8050020F0050020F005002099
:1037EC00F8050020F8050020000600200006002047
:1037FC0008060020080600201006002010060020F5
:10380C0018060020180600202006002020060020A4
:10381C002806002028060020300600203006002054
:10382C003806002038060020400600204006002004
:10383C0048060020480600205006002050060020B4
:10384C005806002058060020600600206006002064
:10385C006806002068060020700600207006002014
:10386C0078060020780600208006002080060020C4
:10387C008806002088060020900600209006002074
:10388C009806002098060020A0060020A006002024
:10389C00A8060020A8060020B0060020B0060020D4
:1038AC00B8060020B8060020C0060020C006002084
:1038BC00C8060020C8060020D0060020D006002034
:1038CC00D8060020D8060020E0060020E0060020E4
:1038DC00E8060020E8060020F0060020F006002094
:1038EC00F8060020F8060020000700200007002042
:1038FC0008070020080700201007002010070020F0
:10390C00180700201807002020070020200700209F
:10391C00280700202807002030070020300700204F
:10392C0038070020380700204007002040070020FF
:10393C0048070020480700205007002050070020AF
:10394C00580700205807002060070020600700205F
:10395C00680700206807002070070020700700200F
:10396C0078070020780700208007002080070020BF
:10397C00880700208807002090070020900700206F
:10398C009807002098070020A0070020A00700201F
:10399C00A8070020A8070020B0070020B0070020CF
:1039AC00B8070020B8070020C0070020C00700207F
:1039BC00C8070020C8070020D0070020D00700202F
:1039CC00D8070020D8070020E0070020E0070020DF
:1039DC00E8070020E8070020F0070020F00700208F
:1039EC00F8070020F807002000080020000800203D
:1039FC0008080020080800201008002010080020EB
:103A0C00180800201808002020080020200800209A
:103A1C00280800202808002030080020300800204A
:103A2C0038080020380800204008002040080020FA
:103A3C0048080020480800205008002050080020AA
:103A4C00580800205808002060080020600800205A
:103A5C00680800206808002070080020700800200A
:103A6C00880800200000000000000000900B0020DF
:103A7C00F80B0020600C002000000000000000008B
:103A8C00000000000000000000000000000000002A
:103A9C00000000000000000000000000000000001A
:103AAC00000000000000000000000000000000000A
:103ABC0000000000000000000000000000000000FA
:103ACC0000000000000000000000000000000000EA
:103ADC0000000000000000000000000000000000DA
:103AEC0000000000000000000000000000000000CA
:103AFC0000000000000000000000000000000000BA
:103B0C0001000000000000000E33CDAB34126DE656
:103B1C00ECDE05000B0000000000000000000000BF
:103B2C000000000000000000000000000000000089
:103B3C000000000000000000000000000000000079
:103B4C000000000000000000000000000000000069
:103B5C000000000000000000000000000000000059
:103B6C000000000000000000000000000000000049
:103B7C000000000000000000000000000000000039
:103B8C000000000000000000000000000000000029
:103B9C000000000000000000000000000000000019
:103BAC000000000000000000000000000000000009
:083BBC00000000000000000001
:103BC400D3DEFFFFFE010000FF01000074C5FFFF0C
:043BD400793512AB82
:040000051000014D99
:00000001FF
