:020000041000EA
:10000000002008205D0100101301001015010010F0
:100010001101001011010010110100101101001058
:100020001101001011010010110100101701001042
:100030001101001011010010190100101B01001026
:100040001D0100101D0100101D0100101D010010F8
:100050001D0100101D0100101D0100101D010010E8
:100060001D0100101D0100101D0100101D010010D8
:100070001D0100101D0100101D0100101D010010C8
:100080001D0100101D0100101D0100101D010010B8
:100090001D0100101D0100101D0100101D010010A8
:1000A0001D0100101D0100101D0100101D01001098
:1000B0001D0100101D0100101D0100101D01001088
:1000C0001D0100101D0100101D0100101D01001078
:1000D0001D0100101D0100101D0100101D01001068
:1000E0001D0100101D0100101D0100101D01001058
:1000F0001D0100101D0100101D0100101D01001048
:100100001D0100101D0100101D0100101D01001037
:1001100000BE00BE00BE00BE00BE00BEEFF3058004
:10012000103800BEF2EB88719C270010BC2700102D
:10013000A801001090A31AE7D3DEFFFF42012110AF
:10014000FF010000202E0000793512AB4FF00000B7
:100150002049086006C881F3088810474FF05040D6
:10016000006810B14FF00000F2E70FA40ECC002998
:1001700002D000F015F8F9E71749184A002000E00E
:1001800001C19142FCD1002080F30A8814498847BC
:10019000144988471449884700BEFDE701C901C2D8
:1001A0009A42FBD3704700BFBC270010100100200B
:1001B000AC080020582F0010000008200000082084
:1001C000582F001000100820001008200000000028
:1001D0007047000008ED00E0AC08002068750620BC
:1001E000ED1D001041030020E51D0010F8B500BF13
:1001F000064B0749C91A891048BF0131491003D07D
:10020000044B0BB101481847704700BFAC080020F1
:10021000AC0800200000000008B5054B1BB10549E3
:100220000548AFF30080BDE80840FFF7E1BF00BF1D
:1002300000000000806F0620F42500104FF480724B
:100240002DE9F04F624C83B023680F2003F505536E
:100250001A63604900F074FE01210F2000F04AFE8D
:100260004FF400722368102003F505535949DA63EF
:1002700000F066FE0121102000F03CFEDFF870A1C6
:10028000DFF87081DFF870B1DFF87091524B1B78A6
:10029000002BFBD04FF000024F4B1A704FF00102C1
:1002A0004E4B1A704E4B1B78002B40F086809AF80C
:1002B0000030D8F800200D339A42F8D9484B4FF05F
:1002C000000C1B78002B73D040F21F139C45DDD02F
:1002D0000122444B18683E4B00F110011B6802FAE2
:1002E00001F15A680A42FCD140F28B12012403EB5F
:1002F0008006326104FA00F100EB400E00F10802C2
:100300001868CF43014348F2800004FA02F24FF02C
:100310000044196003EBCE01D03103EBCE0ECEF8D2
:10032000D80001F5005004604AF227004825CEF8B5
:10033000D80058681042FCD1013D306AF9D12A48F2
:1003400001915D682A42FCD1D6F820E0CEF3032566
:100350004FEAD50444EA4505CEF303144FEA94016D
:1003600041EA8404CEF3030164F34A154FEAD10451
:1003700044EA410161F3CF251C4920F8025F814224
:10038000DFD14FF00042019901F540510A601A682F
:1003900017401F604FF0010389F8003099F80030D2
:1003A000002BFBD00E4B0CF1010C1B78002B8BD1DA
:1003B000BCF1EE0F3FF66AAF8AE7DBF80030D8F801
:1003C000002003F00103C3F10E039A42F5D975E74B
:1003D0007C08002011010020677506207A080020A3
:1003E0007B080020BC6F06203A640620DA690620EC
:1003F000790800207C6F062034640620667506208C
:100400002DE9F0472C4E88B005460121306801F0F7
:1004100031FE00274FF440234FF48032CDE90237FC
:100420004FF4F833CDE900233368DFF8908003F10F
:100430002F4303F560031B0D0DF1100E03F1060CA5
:100440004FEAC51905F10E03C8F8000049EA03395F
:100450009DE80F008EE80F00DFF864A0CDF814903F
:100460009EE80F008DE80F0017205FFA8CF1CDF8A1
:1004700000A000F0DBFB172347EC4430019A6B46E9
:1004800022F0F85242F0B851019103992A4621F422
:10049000782141F4382103913068D8F8001001F038
:1004A000C5FE01233268D8F80000116883400B4371
:1004B000136008B0BDE8F0877C080020C06F0620FC
:1004C000006620002DE9F04F2C4E8BB0054601212F
:1004D000306801F0CFFD4FF440234FF48032049395
:1004E0004FF4F8334FF00009CDE90223DFF8908094
:1004F000CDF800900DF1180CCDF8149002AC8646A2
:10050000C8F8000094E80F008CE80F0005F1080718
:100510003F0347EAC51BCDF81CB09CE80F0084E8F8
:100520000F004FF4502371464A460493306820234D
:1005300001F036FE03994FEAC51A6FF3D01141EA74
:100540000A01394303910499234621F0FA7121F4F9
:10055000803141F4A8112A4604913068D8F800107F
:1005600001F064FE01223168D8F800000B68824077
:1005700023EA02030B600BB0BDE8F08F7C0800207B
:10058000BC6F062008B505210D2000F04FFB0521AA
:100590000C2000F04BFB0F224FF0010343EC4020F6
:1005A0000E2243EC40200D2243EC40200C2243EC71
:1005B0004020824A13689B05FCD500BF00BF00BFE6
:1005C00000BF00BF00BF00BF00BF00BF00BF00BF33
:1005D00000BF00BF00BF00BF00BF00BF00BF00BF23
:1005E00000BF00BF00BF00BF00BF00BF00BF00BF13
:1005F00000BF00BF00BF00BF00BF00BF00BF00BF03
:1006000000BF00BF00BF00BF00BF00BF00BF00BFF2
:1006100000BF00BF00BF00BF00BF00BF00BF00BFE2
:1006200000BF00BF00BF00BF00BF00BF00BF00BFD2
:1006300000BF00BF00BF00BF00BF00BF00BF00BFC2
:1006400000BF00BF00BF00BF00BF00BF00BF00BFB2
:1006500000BF00BF00BF00BF00BF00BF00BF00BFA2
:1006600000BF00BF00BF00BF00BF00BF00BF00BF92
:1006700000BF00BF00BF00BF00BF00BF00BF00BF82
:1006800000BF00BF00BF00BF00BF00BF00BF00BF72
:1006900000BF00BF00BF00BF00BF00BF00BF00BF62
:1006A00000BF00BF00BF00BF00BF00BF00BF00BF52
:1006B00000BF00BF00BF00BF00BF00BF00BF00BF42
:1006C00000BF00BF00BF00BF00BF00BF00BF00BF32
:1006D00000BF00BF00BF00BF00BF00BF00BF00BF22
:1006E00000BF00BF00BF00BF00BF00BF00BF00BF12
:1006F00000BF00BF00BF00BF00BF00BF00BF00BF02
:1007000000BF00BF00BF00BF00BF00BF00BF00BFF1
:1007100000BF00BF00BF00BF00BF00BF00BF00BFE1
:1007200000BF00BF00BF00BF00BF00BF00BF00BFD1
:1007300000BF00BF00BF00BF00BF00BF00BF00BFC1
:1007400000BF00BF00BF00BF00BF00BF00BF00BFB1
:1007500000BF00BF00BF00BF00BF00BF00BF00BFA1
:1007600000BF00BF00BF00BF00BF00BF00BF00BF91
:1007700000BF00BF00BF00BF00BF00BF00BF00BF81
:1007800000BF00BF00BF00BF00BF0521112000F067
:100790004DFA0521102000F049FA05210D2000F046
:1007A00045FA05210C2000F041FA10EE1030DB4331
:1007B00003F47F2320EE103008BD00BF000060501E
:1007C000F0B5A1B06E4680220021684601F0F2FD2E
:1007D000004A01E00000605013689B05FCD500BF93
:1007E00000BF00BF00BF00BF00BF00BF00BF00BF11
:1007F00000BF00BF00BF00BF00BF00BF00BF00BF01
:1008000000BF00BF00BF00BF00BF00BF00BF00BFF0
:1008100000BF00BF00BF00BF00BF00BF00BF00BFE0
:1008200000BF00BF00BF00BF00BF00BF00BF00BFD0
:1008300000BF00BF00BF00BF00BF00BF00BF00BFC0
:1008400000BF00BF00BF00BF00BF00BF00BF00BFB0
:1008500000BF00BF00BF00BF00BF00BF00BF00BFA0
:1008600000BF00BF00BF00BF00BF00BF00BF00BF90
:1008700000BF00BF00BF00BF00BF00BF00BF00BF80
:1008800000BF00BF00BF00BF00BF00BF00BF00BF70
:1008900000BF00BF00BF00BF00BF00BF00BF00BF60
:1008A00000BF00BF00BF00BF00BF00BF00BF00BF50
:1008B00000BF00BF00BF00BF00BF00BF00BF00BF40
:1008C00000BF00BF00BF00BF00BF00BF00BF00BF30
:1008D00000BF00BF00BF00BF00BF00BF00BF00BF20
:1008E00000BF00BF00BF00BF00BF00BF00BF00BF10
:1008F00000BF00BF00BF00BF00BF00BF00BF00BF00
:1009000000BF00BF00BF00BF00BF00BF00BF00BFEF
:1009100000BF00BF00BF00BF00BF00BF00BF00BFDF
:1009200000BF00BF00BF00BF00BF00BF00BF00BFCF
:1009300000BF00BF00BF00BF00BF00BF00BF00BFBF
:1009400000BF00BF00BF00BF00BF00BF00BF00BFAF
:1009500000BF00BF00BF00BF00BF00BF00BF00BF9F
:1009600000BF00BF00BF00BF00BF00BF00BF00BF8F
:1009700000BF00BF00BF00BF00BF00BF00BF00BF7F
:1009800000BF00BF00BF00BF00BF00BF00BF00BF6F
:1009900000BF00BF00BF00BF00BF00BF00BF00BF5F
:1009A00000BF00BF00BF00BF00BF00BF00BF1323D8
:1009B0004FF0000444EC4030112044EC4000052589
:1009C0002B46013BFDD1122344EC4030102744EC70
:1009D00040700A23013BFDD1002100F027F90021DE
:1009E000384600F023F91423013BFDD14FF0A0421B
:1009F000202116600F23D16144EC40300D2044ECDF
:100A00004000013DFDD10E2244EC40200C2544EC79
:100A10004050013BFDD1002100F008F9002128469B
:100A200000F004F921B0F0BD70B44FF0A0434FF4D2
:100A3000B4654FF48851054E054C064A18605E6057
:100A40009D601C61116070BC704700BF0400605065
:100A500013006800008006402DE9F047FFF792FD83
:100A600008206B4A6B4D10606A6D6B4C82F020025F
:100A700002F0E0026265AA6D684982F4803202F4F5
:100A80004032674BA26508609A68D24312F00804AE
:100A9000FAD1132000F02AF9122000F027F922469B
:100AA0002146132000F0E0F822462146122000F0F3
:100AB000DBF813274FF0010545EC4470122645EC96
:100AC000446045EC407045EC40600F2000F00EF9AA
:100AD0000E2000F00BF9224621460F2000F0C4F84A
:100AE000224621460E2000F0BFF80F2245EC44209C
:100AF0000E2345EC443045EC402045EC40300D20C1
:100B000000F0F4F80C2000F0F1F8224621460D2008
:100B100000F0AAF8224621460C2000F0A5F84FF07C
:100B20000D0945EC44904FF00C0845EC448045EC31
:100B3000409045EC4080112000F0D8F8102000F0E3
:100B4000D5F822462146112000F08EF82246214693
:100B5000102000F089F84FF0110A45EC44A0102451
:100B600045EC444045EC40A045EC40404FF400309B
:100B70004FF440314FF480722A4B986159619A606A
:100B800002F580325A60284A50461A60012100F06E
:100B90008FF82046012100F08BF84846012100F033
:100BA00087F84046012100F083F83846012100F023
:100BB0007FF83046012100F07BF83846012100F033
:100BC00077F83046012100F073F83846032100F031
:100BD0007DF83046032100F079F83846032100F013
:100BE00075F83046032100F071F85046032100F0FB
:100BF0006DF82046032100F069F84846032100F013
:100C000065F84046BDE8F047032100F05FB800BF3B
:100C1000002002400000014000100140003002406E
:100C20000000024000000C400102041110B44FF417
:100C300080740C4B53F8202003EB8003C00082F03B
:100C4000400200F1804003F5805C02F0C00200F534
:100C5000203003F54053CCF8002041601C605DF863
:100C6000044B70470480034010B4084CC90041EAAB
:100C7000820154F8202004EB8003514003F5805397
:100C800001F00C015DF8044B1960704704800340CB
:100C9000064B022203EB800319B103F500531A60DF
:100CA000704703F540531A60704700BF048003404B
:100CB000054B53F8202003EB8003514001F0010164
:100CC00003F580531960704704800340064B53F8C6
:100CD000202003EB800382EA011202F0300203F5C8
:100CE00080531A60704700BF0480034030B44FF057
:100CF000000343EC440043EC400005254FF48074AE
:100D00000B4BC20053F8201003EB800081F0400130
:100D100002F1804303F5203301F0C00200F5805159
:100D200000F540500A605D60046030BC704700BF51
:100D3000048003400FB400B583B0049C074801F061
:100D40007BF93CB105A92046019101F031F8044836
:100D500001F072F9012001F043F800BF30260010C5
:100D600040260010EFF3108072B6064BD3E8CF1F79
:100D700001220029FAD1C3E8412F0029F6D1BFF39F
:100D80005F8F70473B0A00200023034AC2E88F3F71
:100D900080F31088704700BF3B0A002070B586467C
:100DA000EFF3108572B6124CD4E8CF6F0120002EFD
:100DB000FAD1C4E8460F002EF6D1BFF35F8F4FF093
:100DC000010CC80801F007030CFA03F31EF800C079
:100DD0001CEA030608D14CEA030C0EF800C0C4E874
:100DE0008F6F85F3108870BD1046FFF7A3FF00BF1B
:100DF0003B0A0020F8B5EFF3108772B61C4ED6E818
:100E0000CF5F0124002DFAD1C6E8454F002DF6D161
:100E1000BFF35F8F9A421BD8012502E00132934253
:100E200022D3D40810F804E002F0070C05FA0CFCF9
:100E30001EEA0C0FF2D14EEA0C0E00F804E0104648
:100E40000023C6E88F3F87F31088984207DBF8BD80
:100E50000023C6E88F3F87F310884FF0FF3000294A
:100E6000F5D00698FFF766FF4FF0FF30E8E700BFC8
:100E70003B0A0020044A1078431CDBB2182B28BF21
:100E800010231370704700BF800800204FF0E0224D
:100E9000936843F000539360704700BF0021044BF8
:100EA00003F12002C3E88F1F01339342FAD1704748
:100EB000300A00204FF0E0234FF08032C3F80024C6
:100EC000C3F80424C3F80824C3F80C24C3F810247E
:100ED000C3F81424C3F81824C3F81C24C3F820242E
:100EE000C3F82424C3F82824C3F82C24C3F83024DE
:100EF000704700BF012300F01F029340400941B139
:100F0000800000F1604000F56140C0F8803103606E
:100F10007047024A203042F82030704700E100E07C
:100F20000123064A410952F8212000F01F0003FA6C
:100F300000F01040003818BF0120704700E100E0C9
:100F4000F8B50D46EFF3108772B6124ED6E8CF2FE4
:100F50000123002AFAD1C6E8423F002AF6D1BFF3A6
:100F60005F8F0D4B00F110049B680C4A53F824303E
:100F7000934203D0994201D000F016FE064B9B68C5
:100F800043F82450BFF35F8F0023C6E88F3F87F3F9
:100F90001088F8BD390A002000ED00E01D010010A6
:100FA000014B0B4403607047300A002070B5104CB1
:100FB000104DAC420ED2FF26236863B1FFF75AFFF3
:100FC00001462046FFF7ECFFA680BFF35F8F083491
:100FD000AC42F1D370BDFFF74DFF01462046FFF74D
:100FE000DFFF2671BFF35F8F0834AC42E4D370BDDE
:100FF0009C080020AC0800200D4B1A68EFF310810C
:1010000072B6D2E8CFCF0120BCF1000FF9D1C2E80F
:101010004C0FBCF1000FF4D1BFF35F8F00221B68AF
:10102000C3E88F2F81F3108840BF00200021704754
:10103000B86F0620000000002DE9F04F2DED028B67
:1010400085B0EFF30583DBB2103B9A0818BF01228D
:101050004FF0010103F0030B18BFAF4DAF4B08BFBA
:10106000AF4D0BEB820253F8226001FA0BF205F54B
:1010700041539FEDA78B01925A602FE0B3881C0467
:1010800040F19380B379002B40F0DD80B6F9082061
:10109000002AC0F21E81736902EB420203EBC20315
:1010A000D3E90247B7F1FF3F08BFB4F1FF3F0ED0CD
:1010B00005EB8B01AB6A0A69D21AE31A934205D396
:1010C00001232A6A03FA0BF3134200D10C6128466C
:1010D00000F0CAFAA042B941C0F2FB80B6F908306C
:1010E000019A002B0093EA63C8DBD6F8148003EB67
:1010F0004309284608EBC907D7E9024A00F0B4FAC9
:10110000A04271EB0A01B9DBBAF1000FC0F2C38053
:10111000D7E90431834A934200F0ED807A88B6F92A
:10112000080092B242EA0040984702460B4652EA53
:10113000030100F0B080002B80F2D180B4EB020EEE
:101140006AEB030A38F93930C7E902EA002B95DB6C
:10115000716903EB430201EBC202D2E90270BE45A2
:101160007AEB000C4FEA430288DBB4462CF8083FC8
:1011700006E003EB430001EBC0005A00D0E9027027
:10118000BE451A447AEB000001EBC20404DB31F9DE
:101190003230A446002BECDA28F83930009BACF84A
:1011A0000030B3881C043FF56DAF3369EFF3108254
:1011B00072B6D3E8CF0F01210028FAD1C3E8401F4F
:1011C0000028F6D1BFF35F8F4FF6FF74B08800237D
:1011D000316900B2B480C1E88F3F82F31088984231
:1011E000FFF650AF0746A946746906F1080807EBF9
:1011F000470E04EBCE03D3E90250B6F90830C446DB
:10120000002B13DBB246009704E034F936309446E5
:10121000002B09DB03EB430604EBC602D2E90271A3
:10122000BD4270EB0101F0DA5646009FACF8007049
:1012300034F93E7024F83E30002FD8DAB3794D46A9
:10124000002B3FF423AF0023B371B6F9083006F149
:101250000808581C3DD01A46776903E08046591C9F
:101260003FF416AF03EB430107EBC100B0F802C037
:101270001C461CF4004F9E4637F93130EED09442A4
:1012800080ED028B05D0A8F80030328927F8312094
:1012900034817246E3E738F8393033813369EFF34C
:1012A000108272B6D3E8CF0F01210028FAD1C3E82B
:1012B000401F0028F6D1BFF35F8F7388316928F88B
:1012C0003930009B73800023C1E88F3F82F3108880
:1012D000D4E640BF05B0BDEC028BBDE8F08F2846D8
:1012E000CDE9022300F0C0F9029A039B10EB020E35
:1012F00043EB010A26E708460B690291984700284C
:10130000C9D00299D1E9002311E700BFAFF30080F3
:10131000FFFFFFFFFFFFFFFF00800B40986F0620DD
:1013200000000B40391000102DE9F84F364C2569AC
:101330002DB1BDE8F84F0A213448FFF731BEDFF880
:10134000E4800321404600F07DF90326C4F80C80B8
:10135000FFF790FD4FF0504C2D4B26700344236156
:10136000DCF800300F216370636961801D834FF0EA
:101370000405A3F878504FF00505A3F890504FF0FE
:101380000605A3F8A8504FF007050E214FF6FF728F
:1013900008274FF00A0EA3F8C0504FF001094FF094
:1013A0000C0C4FF0020B4FF0090A0D204FF00B050B
:1013B000A3F868111749A280A3F808E1A160A3F877
:1013C00048B0A3F8F0A0A3F82051A3F838C1A3F8BF
:1013D0005001A3F83090A3F86060A3F8D8701A8089
:1013E0000D4B3046C8F820700C49DC60FFF7A8FDB3
:1013F00049463046FFF77EFD094B0A211F6403482A
:10140000BDE8F84FFFF7CCBD84080020B86F062078
:10141000300A0020FFFF1000986F062039100010DE
:1014200000200B4000000B400146F0B50069EFF3CF
:10143000108772B6D0E8CF5F0124002DFAD1C0E842
:10144000454F002DF6D1BFF35F8FB1F902E04C6933
:101450000EEB4E0CBEF1000F4FEACC05086904EB11
:10146000CC0C3CDB665B4E800026C0E88F6F87F3B8
:101470001088BCF80200CCE902230130C0F30E0052
:10148000012838BF0120059BACF80200CCF81030D1
:10149000069B40EA0E40CCF814300B69EFF3108243
:1014A00072B6D3E8CFCF0127BCF1000FF9D1C3E862
:1014B0004C7FBCF1000FF4D1BFF35F8F8B88635377
:1014C000A1F804E00B69C3E88F6F82F31088012252
:1014D000CB68097803F501538A405A60F0BD0023B8
:1014E000C0E88F3F87F310884FF0FF30F0BD00BF9A
:1014F00003464089B0EB214F37DD58690A1402EBEF
:10150000420210B500EBC2001C69EFF3108C72B6FA
:10151000D4E8CFEF0122BEF1000FF9D1C4E84E2F7D
:10152000BEF1000FF4D1BFF35F8F428889B292B24F
:101530008A4207D000221B69C3E88F2F8CF31088E2
:10154000002010BD42F400424280012100221869AF
:101550009971C0E88F2F8CF310881C78DA680846E0
:1015600002F50153A140596010BD0020704700BF33
:101570002DE9F04306460D4683B0EFF30584E4B24F
:101580003CB12D4B5A6AAA421CD2002003B0BDE8E0
:10159000F0832A4FD7F80C9097F80080484600F067
:1015A00063F808F1040859F828301B1A301A65EB63
:1015B0000101984271F1000110DB20BF1E4B5A6AF5
:1015C000AA42E2D314BF012400249B6AB34234BF71
:1015D000204644F0010003B0BDE8F08300F04CF871
:1015E000864265EB0101002914DB154B3846CDE935
:1015F000003432462B46FFF717FF011E0ADD0E4B63
:101600005A6AAA4216D39B6AB34211D30B48FFF71A
:101610006FFFB6E7084B5C6AAC42B6D3641B18BFD9
:1016200001249B6AB34234BF204644F00100ADE779
:10163000AA42EBD120BFE9E700000B40840800205C
:10164000F90F001010B4054B054C064AA04214BF18
:101650001846581C5DF8044BFFF7A0BBFC0F002098
:1016600000800B40442600100346416A0A46986AEF
:10167000596A8A42FAD17047034B596A0A46986AF6
:10168000596A9142FAD1704700000B4000EB400CC0
:101690004FEA8C0C0CF1804C0CF5803CF0B51646F2
:1016A000DCF80420051FB2F5803F38BF4FF48032CC
:1016B000EDB238BFCCF80420012D2AD94FF40067D1
:1016C000254C0CF54052176054F82020B2B9DCF8D4
:1016D0000020012D82EA461202F0E0020CF580564D
:1016E00032602AD94FF4006144F820304FF480333F
:1016F0000CF500521160CCF80430F0BD6769B7FBFF
:10170000F2FE0EF1010E0EEB4E0EBEF1030EFCD2F8
:10171000DDE70129D2D103240CF540521460DCF836
:101720000820D207FBD5DCF800200B4C82EA4612D9
:1017300002F0E0020CF5805632600122DCF8005025
:101740004D4005F00305356002FA01F1DCF8082090
:101750000A42FBD0C6E700BF04100020014B53F83B
:101760002000704704100020584B2DE9F0431C6CFA
:101770001746B4F5803F38BF4FF4803283B038BF8E
:101780001A64032280460E46514B504DDA636C6C4E
:10179000E307FCD5EB6B4F4A83F0200303F0E00333
:1017A000D363EB6B494D83F0010303F00303D36371
:1017B0006C6CA407FCD54FF400624FF48039464BA3
:1017C000464CDA63464B4246636101213346C5F815
:1017D00040904448009700F057F94FF400616B6B5C
:1017E00007FB06F64B4538BFC5F83490384B2269E5
:1017F000B8FBF6F619633AB16369B3FBF2F3013350
:1018000003EB4303033BFDD23049324A0B6B03F039
:10181000E00313630B6B83F0020303F00303136312
:101820008B6B5807FCD54FF400654FF480332A4A80
:1018300015632D4A4B6322610A6C9A424FF00302F2
:1018400038BF0B64224B2149DA634B6CDA07FCD5B5
:10185000CB6B204A03F0E003D363CB6B1B4983F0CF
:10186000010303F00303D3634B6C9B07FCD54FF4D8
:1018700080334FF40065184A6661D5630B64CA6C07
:101880009A4238BFCB644FF40061114BA26999644E
:101890003AB16369B3FBF2F3013303EB4303033B58
:1018A000FDD24FF400604FF48031084A094D936C2B
:1018B00083F0400303F0E003AB64074B084DA561E0
:1018C0009864D16403B0BDE8F08300BF000001401C
:1018D00000300140001001400020014004100020B1
:1018E000006CDC0200000540001BB7002DE9F04F42
:1018F0004FF4A078994685B0CDE902125F4CDFF82D
:1019000084A154450AD908F1FF38A4F53B54B8F135
:101910000F0FA4F12004F4D1002069E0072304F59F
:101920003722019403FB03F402F5D872B2FBF4FEF4
:1019300070454FF0010C4FF002074FF003064FF0D7
:1019400004054FF005013FD0B3F1010E00F0948083
:101950000EFB03F4B2FBF4FB58454CD019B301FB6A
:1019600003F4B2FBF4FB58454FD0E5B105FB03F49B
:10197000B2FBF4FB584553D0AEB106FB03F4B2FB07
:10198000F4FB584557D077B107FB03F4B2FBF4FBE7
:1019900058455BD0BCF1000F05D00CFB03F4B2FB43
:1019A000F4FB83455DD0734603FB03F4B2FBF4FE06
:1019B000704501F1FF3105F1FF3506F1FF3607F102
:1019C000FF370CF1FF3CBFD104FB1024002CBBD12E
:1019D0009E464A46DDF808B0DDF80C900120284903
:1019E00001FB08F1CBF80010C9F80030C2F800E0A4
:1019F00005B0BDE8F08F04FB1024002CAED14A46A0
:101A0000DDF808B0DDF80C90E8E704FB1024002CAA
:101A1000ABD14A468E46DDF808B0DDF80C90DDE724
:101A200004FB1024002CA7D14A46AE46DDF808B0CE
:101A3000DDF80C90D2E704FB1024002CA3D14A4619
:101A4000B646DDF808B0DDF80C90C7E704FB1024BB
:101A5000002C9FD14A46BE46DDF808B0DDF80C9058
:101A6000BCE704FB1024002C9DD14A46E646DDF875
:101A700008B0DDF80C90B1E7019C44E750262F0038
:101A8000001BB70050F80C0070B4039D04682D03D0
:101A900045EA03451B4B002CB3FBF1F3B2FBF3F615
:101AA0001FDB194A194B904214BF4FF480424FF488
:101AB0000042174C1A6003F580531A60A36832EA9B
:101AC0000303FBD1212200F54053043301608660FB
:101AD0001A600268002AFCDA0822C5601A6070BC2D
:101AE0007047036803F03F038B42DAD18368C3F386
:101AF0000B03B342D5D1C36803F4EE23AB42D0D17C
:101B0000EDE700BF001BB700008005400020024049
:101B100000000240012300EB4000800000F1804003
:101B200000F5841041600360704700BF0023DB8A2A
:101B3000002242E800F2520201D410211847042189
:101B4000184700BF034AD2F82838002BFBD0BFF358
:101B50005F8F704700000E400021044B044ABFF322
:101B60005F8F43F8041B9342F9D170470C080E4075
:101B70002C080E4010B44FF4BC504FF42A64064AAF
:101B8000064B07491460D06019605368002BFCDADB
:101B90005DF8044B704700BF0080044000A0044083
:101BA00000B0FA00704700BF08B50148FFF7C2F85F
:101BB0006826001038B5054C054DAC4204D254F8E7
:101BC000043B9847AC42FAD338BD00BFB0250010A3
:101BD000F025001038B5054C054DAC4204D254F840
:101BE000043B9847AC42FAD338BD00BFDC25001057
:101BF000F025001010B40748074C084B084A094963
:101C000004601A608B6832EA0303FBD15DF8044B71
:101C1000704700BF002002407F3BEFEF00300240E2
:101C2000F6FFF30300000240044BDB6CB3F5004FFA
:101C300003D14FF48022024BDA6470470000115048
:101C4000002011504FF0E022044BD2F8881D0B43C6
:101C5000C2F8883D10EE3004704700BF0303300027
:101C60006FF06041044B054A19609368DB4333F021
:101C70006043FAD1704700BF0030024000000240CC
:101C800010B545F25320FFF751FFBDE81040034661
:101C90000420184710B545F25320FFF747FFBDE871
:101CA0001040034601201847FFF7F8B810B5054B60
:101CB000054C4FF488721846A16800F0C9FBA0607B
:101CC00010BD00BF0000002000ED00E0002330B593
:101CD0002B4C83B0C4F88430FFF74CFF0122294B12
:101CE000DA63636C012BFCD10321264A244B116378
:101CF0009C6B012CFCD1052521460423224A234854
:101D00000094FFF7C1FE21462B46214A2148009549
:101D1000FFF7BAFE0022022104201F4BFFF7B6FC9A
:101D20002146284600221D4BFFF7B0FC0022082068
:101D300011461B4BFFF7AAFC002209201146184B45
:101D4000FFF7A4FC002206201146144BFFF79EFC6F
:101D50000022124B07201146FFF798FC0420FFF7E2
:101D6000FDFC00240F4BA3FB0035AD0CE0B229466F
:101D70000134FFF7CFFE062CF8D103B030BD00BF11
:101D8000000001400030014000643F4D000005406C
:101D9000008C864700800540001BB70000D94F1318
:101DA000006CDC0283DE1B4300B9704700F002B90F
:101DB00010B5094B84B01C684CB1034600914FF03C
:101DC000FF3203A90548A047012004B010BD00F070
:101DD00033F9204604B010BD38640620A91D001058
:101DE00000BEFDE708B5FFF7FBFF00BF38B5064CA6
:101DF000064DFFF7DFFEAC4204D254F8043B98478F
:101E0000AC42FAD338BD00BFF0250010F425001015
:101E100003680846114618472DE9F0411546427DF2
:101E200007468846002A46D0002D1DDD0B780A2B78
:101E300023D0012D4FF0000C18D04646012416F88F
:101E4000012F21460A2A04F1010422D0A542F6D12D
:101E500065450BDC08EB050313F8013CA3F10D030A
:101E6000B3FA83F35B093B75BDE8F0813B68A5EBF2
:101E70000C0108EB0C009847ECE7037D002BD8D150
:101E8000036802210F489847012DE3D04FF0010C61
:101E9000D3E716F8013C0D2BD8D08C4508EB0C008D
:101EA000A1EB0C0101DA3B689847022105483B6829
:101EB0009847A446CAE7294640463B68BDE8F0413A
:101EC000184700BF902700102DE9F04782B00D465B
:101ED00091461C460646FFF7CFFB4FF0FF3C6FF0E4
:101EE00000472E4A821841F10003944577EB030125
:101EF0003CBF62463B462A4800F056FB6B1C8046BE
:101F000040D00CB3274F284B1C68B4B1B9F1000F77
:101F10001CD1DFF89C9001E0246974B12368002B88
:101F2000FAD0D9F800300BB19C42F5D120462A46B0
:101F30003146B8472469002CF0D1B8F1000F26D102
:101F4000284602B0BDE8F087184FDCE74FF00A0AD8
:101F5000DFF85C9002E02469002CEED02368002BAF
:101F6000F9D0D9F800300BB1A342F4D12A4631465A
:101F70002046B847012220460DF107018DF807A041
:101F8000B847E8E7304600F0D9FA0546B9E7044813
:101F900000F006FB284602B0BDE8F08740420F0083
:101FA000A4080020191E00102C100020111E001083
:101FB00030100020F0B583B006468DF80700FFF71B
:101FC0005BFB4FF0FF356FF00044174A821841F178
:101FD0000003954274EB03013CBF23462A46134895
:101FE00000F0E2FA124B07461C689CB1114D01E06B
:101FF00024697CB12368002BFAD02B680BB19C427A
:10200000F6D1204601220DF10701FFF705FF2469F3
:10201000002CEFD117B9304603B0F0BD034800F0F3
:10202000BFFA304603B0F0BD40420F00A4080020C4
:102030002C1000203010002038B5044600F07EFA45
:10204000012305461A4620462946FFF73DFF084B67
:102050001C682CB163682BB198472469002CF9D116
:10206000284638BD2469002CF4D1284638BD00BF6D
:102070002C10002010B5044604F12F4404F5600430
:10208000084B240D82B0A40000932246E31C0648AE
:10209000FEF7B0FE8442CCBF4FF0FF30001B02B011
:1020A00010BD00BFC0260010001000202DE9F04731
:1020B0000F460546FEF756FE012297F804A097F951
:1020C00005C005F12F4EDFF8D4800EF5600E02FA40
:1020D0000AF24FEA1E5EBCF1000F58F82E6002F1C2
:1020E000FF32CAF1200435DBA44503DC02FA0CF30D
:1020F000334206D04FF0FF34FEF746FE2046BDE8DF
:10210000F087D5F86831F979002B41D14B0731D4EC
:10211000644602FA0CF2164233D13968BAF1000F64
:1021200010D0674601EB4A0A31F8023B07F1120969
:10213000B3F5005F38BF6344514507F1010745F827
:102140002930F1D1324348F82E20FEF71DFE2046FB
:10215000BDE8F087002C02DA13E0013C11D302FA4B
:1021600004F33342A446F8D1D5F86811FB7991B94C
:102170005B07CED56FF00A04FEF706FE2046BDE8E9
:10218000F0876FF00804FEF7FFFD2046BDE8F087FA
:10219000C907BDD5EEE7D907BBD5EBE7500A00204C
:1021A0002DE9F041D0F868419DF81860121B1F2AF4
:1021B00038D84EF29F044EF280054FF4003801EB00
:1021C000410C002E18BF254600EBCC0404F5435407
:1021D00000EBCC0C052BDCF8DC704FEA410EDCF890
:1021E000CC60C4F80C800CD95401053B44F0A054D9
:1021F0000532052BCCF8DC4002F01F02CCF8D85099
:10220000F2D8714400EBC1010020520142EA83631D
:10221000C1F8DC30C1F8D850C1F8DC70C1F8CC602E
:10222000BDE8F0816FF00400FAE700BFF0B50125CA
:1022300004688D4024EA05040460B3B3D3E9015671
:102240001F68DC6801EB410300EBC303C3F8C870EF
:102250004FEA410CC3F8D060C3F8CC50C3F8DC405F
:102260000CEB01034FF0013500EBC30C4FF00046BF
:1022700000EBC30E01230EF5865E0C1D01F108076D
:102280008D40CEF8106003FA04F4CEF8106002F02E
:102290001F028560BB4000F5005004600EF1100E77
:1022A00003600020CCF8D820F0BD4FF480374FF405
:1022B00040264FF4F83501EB410400EBC404C4F8A8
:1022C000C8704FEA410CC4F8D060C4F8CC50C4F8D0
:1022D000DC30C5E703BD00BF10B50446FFF77AFC4C
:1022E0002346BDE810401847F0B5054687B01920D1
:1022F00017460E46FEF714FE002104461920FEF78D
:10230000F9FD0021CDE9046503970026002701228D
:102310004FF050438C46CDE900670292A9B11A6D87
:102320009507FCD5596540BF1A6DD00703D420BF6F
:102330001A6DD207FBD59A6D8A420BD04FF0000C74
:102340000DEB8C021168E9E79A6D1A6DD607FBD484
:1023500040BFE4E70CF1010CBCF1060FF0D12146BF
:10236000192007B0BDE8F040FEF7C4BD0C4B0D4A84
:1023700093420ED39C4603F2F4710B4A9268CCF858
:10238000F4070A48CCF8F837CCF8FC070848FFF700
:10239000ABBF4FF0FF3340F2F3719C46EDE700BF57
:1023A000000808200000082000ED00E0D9220010FD
:1023B000D5220010830730B546D08418844604E047
:1023C00003F8011B9D0704D09C46A4456346F7D142
:1023D00030BD013A0244A2EB0C02032A29D9CCB247
:1023E0000F2A04EB042404EB04442FD9A2F1100CAF
:1023F00003F110052CF00F0CAC44C3E90044C3E911
:10240000024410336345F8D112F00C0F02F00F0EA6
:1024100018D02EF0030CAEF104051A469C4442F885
:10242000044B6245FBD125F0030404330EF0030294
:102430002344002ACCD0C9B21A4403F8011B9342AA
:10244000FBD130BD7246F4E70346C6E79646E0E7A7
:10245000844641EA000313F0030349D1403A23D3F1
:102460000B6803604B6843608B688360CB68C36014
:102470000B6903614B6943618B698361CB69C361FC
:102480000B6A03624B6A43628B6A8362CB6AC362E4
:102490000B6B03634B6B43638B6B8363CB6BC363CC
:1024A00040304031403ADBD230320BD30B6803600E
:1024B0004B6843608B688360CB68C3601030103119
:1024C000103AF3D20C3205D351F8043B40F8043BE8
:1024D000043AF9D2043208D0D2071CBF11F8013BEC
:1024E00000F8013B01D30B8803806046704700BFB2
:1024F000082A13D38B07B1D010F00303AED0C3F179
:102500000403D21ADB071CBF11F8013B00F8013BA2
:10251000A4D331F8023B20F8023B9FE7043AD9D319
:10252000013A11F8013B00F8013BF9D20B78037036
:102530004B7843708B7883706046704720F00301BE
:1025400010F00300C0F1000051F8043B00F1040C4E
:102550004FEACC0C6FF000021CBF22FA0CF21343BE
:102560004FF0010C4CEA0C2C4CEA0C4CA3EB0C0287
:1025700022EA030212EACC1204BF51F8043B0430F1
:10258000F4D0C2F1000102EA0102B2FA82F2C2F111
:102590001F0200EBD2007047F8B500BF000000003A
:1025A0005FF800F0A90700205FF800F04107002065
:1025B000811C0010F51B0010291C0010CD1C001000
:1025C000611C0010591B0010A91C0010451B0010B5
:1025D000AD0F0010AD1C001029130010A51B00103A
:1025E000951C0010451C00108D0E0010B50E00103B
:0425F00019020010BC
:1025F40053797374656D20636C6F636B206F662011
:102604002575206B487A2063616E6E6F7420626555
:102614002065786163746C792061636869657665A7
:1026240064000000B822A0051E0000000A2A2A2A1D
:102634002050414E4943202A2A2A0A000A00000059
:10264400486172647761726520616C61726D2025E6
:102654006420616C726561647920636C61696D6585
:1026640064000000486172642061737365727400D1
:1026740052656C6561736500626F6F74325F7732A7
:102684003571303830000000302E3100322E312EBA
:10269400310000007069636F320000004672616DA2
:1026A400657468726F7765725F44656E69736500FF
:1026B4004F63742032362032303235004E6F205052
:1026C400494F207374617465206D616368696E6538
:1026D400732061726520617661696C61626C65006A
:1026E400EC2600100FFF0100A020202001C03FE0D5
:1026F400C00042A2440000C0A02052E03FE042A338
:102704004B008A00000000001427001009FF01029A
:10271400972517259725142094250040142500405B
:1027240044000000B80100000700000006005250F9
:10273400D3F075427426001006005250E182887F5F
:102744007C260010060052503ABCA9118C260010B9
:1027540006005250ABB3605390260010060052504E
:10276400BBFF3CB69826001006005250861C03029C
:10277400A0260010060052505422A29DB426001038
:1027840005005250DE65F4686C2F00100D0A00003D
:08279400BCFCFF7F0100000006
:10279C00302700103C270010482700105427001049
:1027AC00602700106C270010782700108427001079
:1027BC00214BF0B41B681A6BD1072FD501251F4C88
:1027CC001F49204A1D6325700C68D2F800C01E4FAB
:1027DC00B4EB0C0418BF01243C700C681B48B4F516
:1027EC00967F94BF4FF0000C4FF0010C184E80F800
:1027FC0000C0347890F800C0E4B2AC4519D0C4B134
:10280C00144C25700078144CC0B23070106800F075
:10281C0001002070002014680C6010601A6B920785
:10282C0005D50221074A1963136801331360F0BC04
:10283C0070470025E4E700BF7C0800206775062080
:10284C00346406207C6F0620657506207B0800200A
:10285C00780800206475062079080020032905DC1F
:10286C00032903D8DFE801F0161B2703704710B4C7
:10287C004FF4B4720346164C186800EA04014FEA90
:10288C009101D0FA41F043F8040B013AF4D15DF810
:10289C00044B70474FF4B462002100F01DBB0D498E
:1028AC00031F00F29C5053F8042F01EA9202984245
:1028BC001A60F8D170470849031F00F29C5053F876
:1028CC00042F01EA520298421A60F8D1704700BFF7
:1028DC009CE79CE7E739E739EF7BEF7B032A27DCA2
:1028EC0038B54FEA610C05460C46032A1FD8DFE8C1
:1028FC0002F03E025020BCF1000F0ADD031F3549E7
:10290C0003EB8C0C53F8042F01EA92029C451A60DD
:10291C00F8D1E3070BD543F6E71304F10044013C6F
:10292C0035F8142005EB440403EA9203238038BDE8
:10293C0070470346284A00BF186800EA02014FEAB4
:10294C009101D0FA41F043F8040BBCF1010CF3D126
:10295C00E307ECD543F6E71204F10044013C35F8EB
:10296C00143002EA93029B1A25F8143038BDBCF1DE
:10297C00000F2BDD00214FEA8C0200F0ADFAE007CE
:10298C00D5D5002304F10044013C05EB44052B8014
:10299C0038BDBCF1000F0ADD031F104903EB8C0C92
:1029AC0053F8042F01EA52029C451A60F8D1E20751
:1029BC00BDD547F6EF3304F10044013C35F8142043
:1029CC0005EB440403EA5203238038BDE107D8D455
:1029DC0038BD00BFE739E7399CE79CE7EF7BEF7B1D
:1029EC008A4B2DE9F04FDB68894A83F4407383F0FE
:1029FC000303C3F30A0385B0D360BFF35F8F85482D
:102A0C0003AB02AA01A900F057FA18B98149824810
:102A1C0000F05AFA0024DDE90212019800F068FA7D
:102A2C002546204600F04CFA45EC44400121204656
:102A3C0000F036FA204600220121013400F028FA79
:102A4C00302CEED1172000F03BFA172445EC444013
:102A5C0000220121162000F01BFA0121204600F073
:102A6C001FFA162000F02CFA162445EC44400022E4
:102A7C002046012100F00CFA0121204600F010FA4A
:102A8C00152000F01DFA152445EC44400022204688
:102A9C00012100F0FDF92046604C012100F000FA04
:102AAC005F49206800F004FA5E490646206800F091
:102ABC00FFF90546304600F01FFA284600F0F4F9FD
:102ACC000123594A1168226801F1100083405468AF
:102ADC001C40FCD140F28B164FF48855534B0431FB
:102AEC0042F8216052481D6000F0D6F900F008FA57
:102AFC00204600F0EDF94F4D4F4EDFF85891DFF8BE
:102B0C005881DFF858A1DFF858B12B78002BFCD096
:102B1C0000242C7000F0A6F83378002BFCD04FF476
:102B2C00B4624649464800F001F90023337099F825
:102B3C000030002B57D04FF4B46298F8003002FBF1
:102B4C0004A7002B37D09BF80030002B39D03C4920
:102B5C003C4800F0C9F93C4B3A481968FFF77EFE37
:102B6C004FF4B4622220374900F0AEF84FF4B4624F
:102B7C003946222000F0A8F838464FF4B4623049A8
:102B8C0000F0E6F898F8002040F21F13002A08BF66
:102B9C00EF230134A342BFD84FF4B46222202B4957
:102BAC0000F092F84FF4B4622220284900F08CF81F
:102BBC0000F070F8A9E79BF8003013B94FF4B46239
:102BCC00C5E7214B38461968FFF748FE39464FF4E4
:102BDC00B462222000F078F84FF4B4622220184935
:102BEC0000F072F8C8E74FF4B4622220144900F0E8
:102BFC006BF8174B12481968FFF730FE4FF4B462AC
:102C0C0022200F4900F060F8BCE700BF00000D4027
:102C1C0000100D40A0F10400F42500107C080020E9
:102C2C00E42600100C270010BC6F06200080064024
:102C3C003D0200107A080020667506203C640620D0
:102C4C00DC690620C46F0620700800205C0A002096
:102C5C0074080020657506207B08002034100020C5
:102C6C0079080020B822002300B583B000928DF8BB
:102C7C00043000F049F94FF0A0420523C2F800D00F
:102C8C00D36113695B01FCD400F02AF903B05DF841
:102C9C0004FB00BF00B50B4B83B093E8030000901E
:102CAC008DF8041000F030F94FF0A0420523C2F863
:102CBC0000D0D36113695B01FCD400F011F903B0AF
:102CCC005DF804FB282700104FF47F4C30B50D46FF
:102CDC00154985B003C9144602908DF80C10ADF857
:102CEC0004C000F011F94FF0A040052302AA0260C5
:102CFC00C36103695901FCD44FF0A04C0560C46159
:102D0C00DCF810305A01FBD402234FF0A04201A989
:102D1C00CCF80010CCF81C3013695B01FCD400F02B
:102D2C00DFF805B030BD00BF282600104FF0A043DF
:102D3C0010B4064C9208C3F88010C3F88400C3F892
:102D4C008820C3F88C405DF8044B70475B407E00D4
:102D5C004FF0A04310B4064C9208C3F8C010C3F84F
:102D6C00C400C3F8C820C3F8CC405DF8044B7047CE
:102D7C005B607E004FF050412DE9F0410027044686
:102D8C0016461D46D1F8008008E0C1E88F7F8CF311
:102D9C0010883046294600F077F8E8B92168EFF33F
:102DAC00108C72B6D1E8CF2F0123002AFAD1C1E8DA
:102DBC00423F002AF6D1BFF35F8F94F904302168AB
:102DCC00002BE2DA002384F80480C1E88F3F8CF3F7
:102DDC0010880120BDE8F0810020BDE8F08100BF23
:102DEC0030B50468EFF3108C72B6D4E8CFEF012540
:102DFC00BEF1000FF9D1C4E84E5FBEF1000FF4D163
:102E0C00BFF35F8F90F904400568002C10DB0021A4
:102E1C00C5E88F1F8CF310884FF0504595F9005082
:102E2C00A54201D1084630BDBDE83040FFF7A2BF36
:102E3C004FF05042126800230271C5E88F3F8CF3AB
:102E4C001088012030BD00BF0368EFF3108272B60A
:102E5C00D3E8CFCF0121BCF1000FF9D1C3E84C1F4F
:102E6C00BCF1000FF4D1BFF35F8F4FF0FF0C0023C8
:102E7C00016880F804C0C1E88F3F82F3108840BF1E
:102E8C00704700BF000000005FF800F071150010E3
:102E9C005FF800F0690C00105FF800F06D23001073
:102EAC005FF800F0910C00105FF800F0C504001002
:102EBC005FF800F0AD2000105FF800F0ED18001086
:102ECC005FF800F0ED0C00105FF800F0350D00100D
:102EDC005FF800F0290A00105FF800F0B52300102D
:102EEC005FF800F0850500105FF800F05124001029
:102EFC005FF800F0691700105FF800F00104001093
:102F0C005FF800F0590A00105FF800F0C1070010DC
:102F1C00040000000300000001010101000020502A
:102F2C001000000000000000000000000000000085
:102F3C000000000000000000B008002000000000AD
:0C2F4C0000000000000000000000000079
:102F5800D3DEFFFFFE010000FF010000E0D1FFFF0C
:042F6800793512ABFA
:040000051000014D99
:00000001FF
